S00D00007069616E6F2E7372656300
S11300000C944C000C94EE060C9439070C94690083
S11300100C9469000C9469000C9469000C946900B8
S11300200C9469000C9469000C9469000C946900A8
S11300300C9469000C9469000C9469000C94690098
S11300400C9469000C9469000C9469000C94690088
S11300500C9469000C9469000C9469000C94690078
S11300600C9469000C946900FD0504060B06120645
S11300701906200627062E06500657065E06650654
S11300806C0673067A068106A406AB06B206B906A8
S1130090C006C706CE06D50611241FBECFEFD8E092
S11300A0DEBFCDBF11E0A0E0B1E0ECE5FBE102C0B2
S11300B005900D92A435B107D9F721E0A4E5B1E08C
S11300C001C01D92A435B207E1F70E9486070C9483
S11300D0AC0D0C94E806CF93C82F84600E946D0881
S11300E000008C2F8B7F0E946D080000CF91089533
S11300F0CF93C82F0E946D088C2F0E946B00CF9164
S113010008951F93CF93DF93182FD62FD07FD42B2E
S113011080E1689FB0011124C42FC62B0E945408AB
S1130120812F0E945F088D2F0E946D088D2F0E94E1
S11301306B008C2F0E946D088C2F0E946B000E9414
S11301407A08DF91CF911F91089548E00E948100C1
S113015083ED90E30197F1F700C000000895CF9379
S1130160C82F8FE99FE00197F1F700C000000E94BB
S113017048080E9454088C2F0E945F0880E30E9464
S1130180780081EE94E00197F1F700C0000080E36D
S11301900E94780094E29A95F1F700C080E30E94EF
S11301A0780080E18A95F1F700C080E20E9478002F
S11301B090E19A95F1F700C00E947A0868E28C2FCA
S11301C00E94A50068E08C2F0E94A50061E08C2F9E
S11301D00E94A50066E08C2F0E94A50080E0CF91CC
S11301E0089549E00E9481000895613188F4433004
S11301F088F4411105C060680E94A50080E008955C
S1130200413051F4605C60680E94A50080E008956C
S113021081E0089581E0089580E0089561E00E94FE
S1130220A50008956CE00E94A50008951F93CF9344
S1130230DF93EB016881662341F0182F2196812F0B
S11302400E94F10069916111FACFDF91CF911F9162
S113025008951092C50087E68093C40086E08093D9
S1130260C20088E18093C1000895E0ECF0E0908141
S113027095FFFDCF8093C6000895CF93DF93EC01E3
S11302808881882331F021960E943501899181115A
S1130290FBCFDF91CF9108950F931F93CF93DF93FB
S11302A0CDB7DEB72A970FB6F894DEBF0FBECDBF29
S11302B09F938F9383E091E09F938F938E010F5FC1
S11302C01F4F1F930F930E94C20AC8010E943D0151
S11302D00F900F900F900F900F900F902A960FB6DB
S11302E0F894DEBF0FBECDBFDF91CF911F910F9168
S11302F008958F929F92AF92BF92CF92DF92EF9226
S1130300FF920F931F93CF93DF93CDB7DEB72A9756
S11303100FB6F894DEBF0FBECDBF4B015C010E9447
S113032062096B017C0120E030E44CE156E4C50134
S1130330B4010E944F0A4B015C0180E197E28C9D5D
S1130340B0018D9D700D9C9D700D1124072E000C25
S1130350880B990B0E949A099B01AC01C501B40159
S11303600E947E080E9462097F936F93DF92CF926E
S113037086E091E09F938F938E010F5F1F4F1F9331
S11303800F930E94C20AC8010E943D010FB6F8945F
S1130390DEBF0FBECDBF2A960FB6F894DEBF0FBEE8
S11303A0CDBFDF91CF911F910F91FF90EF90DF9020
S11303B0CF90BF90AF909F908F9008952F923F92CF
S11303C04F925F926F927F928F929F92AF92BF9261
S11303D0CF92DF92EF92FF920F931F93CF93DF930D
S11303E0CDB7DEB76C970FB6F894DEBF0FBECDBFA6
S11303F069837A838B839C83239A20E030E048E2EC
S113040051E469817A818B819C810E94F0086D831B
S11304107E838F83988720E030E04AE755E40E948A
S11304204F0A2B013C010E9469096B017C0120E009
S113043030E040E85FE3C301B2010E94EB08882387
S11304401CF491E080E002C09C2D8D2D292E382EC5
S113045084E190E000E911E09A87898720E030E0A8
S113046040E85FE3C301B2010E94EB08882304F172
S113047020E03FEF4FE757E4C301B2010E944A0A6C
S11304801816B4F420E030E040E251E46D817E813E
S11304908F8198850E944F0A0E9469096115710530
S11304A051F0C8010197F1F761507109D1F703C008
S11304B0C1010197F1F72B9A20E030E040EB51E4C1
S11304C069817A818B819C810E944F0A20E030E00F
S11304D048E251E40E94F0086B017C0120E030E026
S11304E04AE755E40E944F0A4B015C0120E030E0EA
S11304F040E85FE30E94EB0888231CF120E03FEF13
S11305004FE757E4C501B4010E944A0A1816A4F43F
S113051020E030E040E251E4C701B6010E944F0AF6
S11305200E9469096115710589F0C8010197F1F705
S113053061507109D1F70AC0C501B4010E9469096B
S113054002C061E070E0CB010197F1F72B98898537
S11305509A8501979A878987892B09F07FCF2DEC9B
S11305603CEC48E251E469817A818B819C810E9450
S1130570F0086D877E878F87988B20E030E04AE70C
S113058055E40E944F0A2B013C010E9469096B014A
S11305907C0120E030E040E85FE3C301B2010E9447
S11305A0EB0888231CF491E080E002C09C2D8D2D83
S11305B0292E382E8AE090E000E911E0BB24B394A0
S11305C0A12C9A8B898BBD82A98620E030E040E87B
S11305D05FE3C301B2010E94EB08882304F120E029
S11305E03FEF4FE757E4C301B2010E944A0A1816CD
S11305F0B4F420E030E040E251E46D857E858F85DF
S113060098890E944F0A0E9469096115710551F089
S1130610C8010197F1F761507109D1F703C0C10115
S11306200197F1F72B9A2DEC3CEC40EB51E46981F6
S11306307A818B819C810E944F0A2DEC3CEC48E22C
S113064051E40E94F0084B015C0120E030E04AE7ED
S113065055E40E944F0A6B017C0120E030E040E841
S11306605FE30E94EB0888231CF120E03FEF4FE793
S113067057E4C701B6010E944A0A1816A4F420E000
S113068030E040E251E4C501B4010E944F0A0E94E7
S113069069096115710589F0C8010197F1F7615085
S11306A07109D1F70AC0C701B6010E94690902C0E5
S11306B06D817985CB010197F1F72B9889899A8906
S11306C001979A8B898B892B09F07FCF8B8A9C8A1F
S11306D0AD8ABE8A2AE939E949E251E469817A811D
S11306E08B819C810E94F0086F8B788F898F9A8F01
S11306F020E030E04AE755E40E944F0A69877A8790
S11307008B879C870E9469094B015C0120E030E0E3
S113071040E85FE369857A858B859C850E94EB08B8
S113072088231CF491E080E002C0982D892D998BD8
S11307308A8B85E090E000E911E09C8F8B8F20E0AC
S113074030E040E85FE369857A858B859C850E946B
S1130750EB08882314F120E03FEF4FE757E4698565
S11307607A858B859C850E944A0A1816B4F420E089
S113077030E040E251E46F89788D898D9A8D0E9432
S11307804F0A0E9469096115710559F0C801019762
S1130790F1F761507109D1F704C089899A890197E9
S11307A0F1F72B9A2AE939E941EB51E469817A811D
S11307B08B819C810E944F0A2AE939E949E251E47C
S11307C00E94F0086D837E838F83988720E030E059
S11307D04AE755E40E944F0A4B015C0120E030E0F7
S11307E040E85FE30E94EB0888232CF120E03FEF10
S11307F04FE757E4C501B4010E944A0A1816B4F43D
S113080020E030E040E251E46D817E818F81988563
S11308100E944F0A0E9469096115710589F0C80197
S11308200197F1F761507109D1F70AC0C501B4010C
S11308300E94690902C061E070E0CB010197F1F701
S11308402B988B8D9C8D01979C8F8B8F892B09F016
S113085076CF0AE010E0BB24B394A12C20E030E072
S113086040E85FE3C301B2010E94EB0888230CF166
S113087020E03FEF4FE757E4C301B2010E944A0A68
S11308801816BCF420E030E040E251E46D857E852A
S11308908F8598890E944F0A0E9469096115710524
S11308A059F080E991E00197F1F761507109C9F7B6
S11308B003C0C1010197F1F72B9A20E030E040E832
S11308C05FE3C701B6010E94EB08882334F120E0FE
S11308D03FEF4FE757E4C701B6010E944A0A1816D2
S11308E0BCF420E030E040E251E46B897C898D89DE
S11308F09E890E944F0A0E9469096115710591F051
S113090080E991E00197F1F761507109C9F70AC0D4
S1130910C701B6010E94690902C06B2D7A2DCB0173
S11309200197F1F72B980150110909F097CF6C96B4
S11309300FB6F894DEBF0FBECDBFDF91CF911F91EC
S11309400F91FF90EF90DF90CF90BF90AF909F906A
S11309508F907F906F905F904F903F902F9008956D
S11309602F923F924F925F926F927F928F929F92BB
S1130970AF92BF92CF92DF92EF92FF920F931F93A9
S1130980CF93DF931F92CDB7DEB74B015C01239A5F
S113099020E030E04AE755E40E944F0A6B017C01F5
S11309A00E9469092B013C016983352C20E030E069
S11309B040E85FE3C701B6010E94EB0888231CF4FA
S11309C091E080E002C0942D852D692E782E00E000
S11309D010E055245394212C498020E030E040E875
S11309E05FE3C701B6010E94EB08882304F120E00D
S11309F03FEF4FE757E4C701B6010E944A0A1816B1
S1130A00B4F420E030E040E251E4C501B4010E94B6
S1130A104F0A0E9469096115710509F461C080E9F2
S1130A2091E00197F1F761507109C9F74DC0C30115
S1130A300197F1F72B9A20E030E040E85FE3C7012B
S1130A40B6010E94EB088823FCF020E03FEF4FE75B
S1130A5057E4C701B6010E944A0A1816C4F420E0FC
S1130A6030E040E251E4C501B4010E944F0A0E9403
S1130A70690961157105A9F080E991E00197F1F721
S1130A8061507109C9F70DC0852D922D08C0842DC0
S1130A90932D05C0852D922D02C0852D922D019791
S1130AA0F1F72B980F5F1F4F0430110509F095CF14
S1130AB023C020E030E040E251E4C501B4010E94CB
S1130AC04F0A0E946909D8CF2B9A20E030E040E811
S1130AD05FE3C701B6010E94EB08882354F7DACF1D
S1130AE02B9A20E030E040E85FE3C701B6010E94A2
S1130AF0EB088823B4F6D1CF0F90DF91CF911F91EB
S1130B000F91FF90EF90DF90CF90BF90AF909F90A8
S1130B108F907F906F905F904F903F902F900895AB
S1130B202B9808953A98419A28E030E080E045E017
S1130B3096B192FB992790F9880F892B4098942FAE
S1130B409A95F1F7409A2150310991F74198089507
S1130B502498419A28E030E080E045E093B19295F2
S1130B609170880F892B4098942F9A95F1F7409AA9
S1130B702150310999F7419808952598419A28E020
S1130B8030E080E045E093B195FB992790F9880F18
S1130B90892B4098942F9A95F1F7409A2150310966
S1130BA091F741980895CF92DF92FF920F931F938C
S1130BB0CF93DF930E949205C82E0E94A805082FA8
S1130BC00E94BD05F82EC1E0D0E060E070E0CB01EA
S1130BD0D12C01C02196FE01319796010E2E02C040
S1130BE0359527950A94E2F720FF3FC0E830F105D8
S1130BF0E0F5EC5CFF4F0C94BC0A2AE63DE447E3C5
S1130C0050E40E947F08E6CF29E039EF4CE250E43B
S1130C100E947F08DFCF26E933E443E250E40E94D8
S1130C207F08D8CF24E238E24AE150E40E947F08EA
S1130C30D1CF2BEE33E741E150E40E947F08CACFC5
S1130C402BE13FE249E050E40E947F08C3CF23E553
S1130C5036E941E050E40E947F08BCCF2DE031E743
S1130C6044EF5FE30E947F0804C0C830D1050CF450
S1130C70B1CFC1E0D0E010E001C02196FE01319770
S1130C8098010E2E02C0359527950A94E2F720FFAD
S1130C903FC0E830F105E0F5E45CFF4F0C94BC0A7A
S1130CA02BEC30E147EE5FE30E947F08E6CF2EE3B2
S1130CB038EE49ED5FE30E947F08DFCF2BEA3FEC7B
S1130CC04DEC5FE30E947F08D8CF2AE131E542EC86
S1130CD05FE30E947F08D1CF2BE935E547EB5FE363
S1130CE00E947F08CACF2DEA3AEF4CEA5FE30E94E4
S1130CF07F08C3CF26E933E443EA5FE30E947F0819
S1130D00BCCF21E93FE04AE95FE30E947F0804C0C9
S1130D10C830D1050CF4B1CFC1E0D0E00F2D10E004
S1130D2001C02196FE01319798010E2E02C035951F
S1130D3027950A94E2F720FF3FC0E830F105E0F57B
S1130D40EC5BFF4F0C94BC0A2EE835E741E95FE306
S1130D500E947F08E6CF27E634E449E85FE30E9477
S1130D607F08DFCF20EE3CE941E85FE30E947F0883
S1130D70D8CF27EE3DE147E65FE30E947F08D1CF5D
S1130D802AE535EF49E55FE30E947F08CACF28E4EE
S1130D903FEB4DE45FE30E947F08C3CF25E437E4D3
S1130DA042E45FE30E947F08BCCF20E73FE547E3CE
S1130DB05FE30E947F0804C0C830D1050CF4B1CFB2
S1130DC0DF91CF911F910F91FF90DF90CF90089505
S1130DD01F920F920FB60F921124FFCF1F920F9202
S1130DE00FB60F9211242F933F934F935F936F93FA
S1130DF07F938F939F93AF93BF93EF93FF9384EF6E
S1130E0091E020E931E0F9013197F1F70197D9F741
S1130E104A9B0FC01092010141E060E08091020101
S1130E200E94F5006FE071E0809102010E941601BA
S1130E300FC081E08093010141E060E080910201F4
S1130E400E94F50060E271E0809102010E941601A7
S1130E50FF91EF91BF91AF919F918F917F916F918E
S1130E605F914F913F912F910F900FBE0F901F9064
S1130E7018951F920F920FB60F9211242F933F9340
S1130E804F935F936F937F938F939F93AF93BF938E
S1130E90EF93FF9384EF91E020E931E0F90131977A
S1130EA0F1F70197D9F74B9B12C040E060E08091C5
S1130EB002010E94F50061E371E0809102010E9449
S1130EC016010E94290181E0809300010EC040E0D8
S1130ED060E0809102010E94F50062E471E080917B
S1130EE002010E94160110920001FF91EF91BF913F
S1130EF0AF919F918F917F916F915F914F913F91AE
S1130F002F910F900FBE0F901F901895429A2C9A14
S1130F102D9A0E949005809102010E94AF00809159
S1130F2002010E940E01809102010E941201C4E19B
S1130F30D0E060E070E080E090E40E94B00421978B
S1130F40C1F7C4E1D0E060E070E080E290E40E9488
S1130F50B0042197C1F7C4E1D0E060E070E080E81C
S1130F6090E40E94B0042197C1F70E94900587B1D4
S1130F708FEF87B99AB18AB9E9E6F0E080818160A0
S1130F808083E89A808184608083E99A4A9B0FC0B9
S1130F901092010141E060E0809102010E94F5009D
S1130FA06FE071E0809102010E9416010FC081E0A0
S1130FB08093010141E060E0809102010E94F5000C
S1130FC060E271E0809102010E9416014B9B12C005
S1130FD040E060E0809102010E94F50061E371E06D
S1130FE0809102010E9416010E94290181E08093F0
S1130FF000010EC040E060E0809102010E94F50013
S113100062E471E0809102010E94160110920001D5
S113101078940E94D3056B017C0120E030E0A901A3
S11310200E944A0A18168CF580910101811109C0A9
S113103080910001811110C0C701B6010E94B00463
S1131040E8CF813049F480910001811105C0C701C6
S1131050B6010E94DE01DDCF809100018130C9F626
S11310600E9490058091010190E00E944C0180E271
S11310700E943501C701B6010E9479018DE00E94EA
S113108035018AE00E943501C4CF0E949005C1CF8A
S113109088E08093B800E9EBF0E080819081827071
S11310A08160892B8083089584EA8093BC00ECEBF3
S11310B0F0E080818823ECF78091B9000895880FCF
S11310C08093BB0084EC8093BC00ECEBF0E0808167
S11310D08823ECF78091B90008958093BB0084ECD9
S11310E08093BC00ECEBF0E080818823ECF78091E6
S11310F0B900089584E98093BC0008955058BB2733
S1131100AA270E9496080C94100A0E94020A38F03A
S11311100E94090A20F039F49F3F19F426F40C9434
S1131120FF090EF4E095E7FB0C94F909E92F0E94FE
S1131130210A58F3BA17620773078407950720F04A
S113114079F4A6F50C94430A0EF4E0950B2EBA2F0D
S1131150A02D0B01B90190010C01CA01A0011124B9
S1131160FF27591B99F0593F50F4503E68F11A1665
S1131170F040A22F232F342F4427585FF3CF4695F6
S113118037952795A795F0405395C9F77EF41F1618
S1131190BA0B620B730B840BBAF09150A1F0FF0FE2
S11311A0BB1F661F771F881FC2F70EC0BA0F621FCE
S11311B0731F841F48F4879577956795B795F795BE
S11311C09E3F08F0B0CF9395880F08F09927EE0F53
S11311D09795879508950E94D50908F481E00895AC
S11311E00E9404090C94100A0E94090A58F00E94F3
S11311F0020A40F029F45F3F29F00C94F9095111D7
S11312000C94440A0C94FF090E94210A68F3992360
S1131210B1F3552391F3951B550BBB27AA276217EE
S11312207307840738F09F5F5F4F220F331F441FFB
S1131230AA1FA9F335D00E2E3AF0E0E832D091502F
S11312405040E695001CCAF72BD0FE2F29D0660F1C
S1131250771F881FBB1F261737074807AB07B0E85F
S113126009F0BB0B802DBF01FF2793585F4F3AF065
S11312709E3F510578F00C94F9090C94440A5F3FA1
S1131280E4F3983ED4F3869577956795B795F795EB
S11312909F5FC9F7880F911D9695879597F90895D3
S11312A0E1E0660F771F881FBB1F6217730784076F
S11312B0BA0720F0621B730B840BBA0BEE1F88F77E
S11312C0E09508950E9469096894B1110C94440A48
S11312D008950E94290A88F09F5798F0B92F9927FA
S11312E0B751B0F0E1F0660F771F881F991F1AF00D
S11312F0BA95C9F714C0B13091F00E94430AB1E025
S113130008950C94430A672F782F8827B85F39F023
S1131310B93FCCF3869577956795B395D9F73EF4A5
S113132090958095709561957F4F8F4F9F4F08954D
S1131330E89409C097FB3EF490958095709561956B
S11313407F4F8F4F9F4F9923A9F0F92F96E9BB2721
S11313509395F695879577956795B795F111F8CF9D
S1131360FAF4BB0F11F460FF1BC06F5F7F4F8F4F08
S11313709F4F16C0882311F096E911C0772321F0FE
S11313809EE8872F762F05C0662371F096E8862F96
S113139070E060E02AF09A95660F771F881FDAF7ED
S11313A0880F9695879597F90895990F0008550F1A
S11313B0AA0BE0E8FEEF16161706E807F907C0F0D7
S11313C012161306E407F50798F0621B730B840BDF
S11313D0950B39F40A2661F0232B242B252B21F4B9
S11313E008950A2609F4A140A6958FEF811D811D59
S11313F0089597F99F6780E870E060E008959FEF93
S113140080EC089500240A94161617061806090697
S1131410089500240A941216130614060506089566
S1131420092E0394000C11F4882352F0BB0F40F4EE
S1131430BF2B11F460FF04C06F5F7F4F8F4F9F4F2E
S1131440089557FD9058440F551F59F05F3F71F0B0
S11314504795880F97FB991F61F09F3F79F0879517
S11314600895121613061406551FF2CF4695F1DFA0
S113147008C0161617061806991FF1CF8695710530
S1131480610508940895E894BB2766277727CB0164
S113149097F908950E94D50908F48FEF08950E94E2
S11314A0620A0C94100A0E94020A38F00E94090A87
S11314B020F0952311F00C94F9090C94FF091124E0
S11314C00C94440A0E94210A70F3959FC1F3950F6E
S11314D050E0551F629FF001729FBB27F00DB11DB4
S11314E0639FAA27F00DB11DAA1F649F6627B00D44
S11314F0A11D661F829F2227B00DA11D621F739F2D
S1131500B00DA11D621F839FA00D611D221F749F3A
S11315103327A00D611D231F849F600D211D822F81
S1131520762F6A2F11249F5750409AF0F1F08823A8
S11315304AF0EE0FFF1FBB1F661F771F881F9150D5
S11315405040A9F79E3F510580F00C94F9090C9482
S1131550440A5F3FE4F3983ED4F386957795679504
S1131560B795F795E7959F5FC1F7FE2B880F911DFF
S11315709695879597F90895EE0FFF1F0590F491BE
S1131580E02D0994AEE0B0E0E8ECFAE00C94830DB1
S11315900D891E8986E08C831A8309838FEF9FE768
S11315A09E838D83AE01475E5F4F6F89788DCE0138
S11315B001960E94E40AEF81F885E00FF11F108282
S11315C02E96E4E00C949F0DABE0B0E0EAEEFAE076
S11315D00C94750D6C017B018A01FC011782168243
S11315E0838181FFCCC1CE0101963C01F601938138
S11315F0F70193FD859193FF81917F01882309F47D
S1131600BAC1853239F493FD859193FF81917F01AD
S1131610853229F4B60190E00E94DB0CE7CF912CCF
S1131620212C312CFFE1F315D8F08B3279F038F40A
S1131630803279F08332A1F4232D20611DC08D32D4
S113164061F0803369F4232D216016C0832D8260FC
S1131650382EE32DE4603E2E2AC0F32DF8601DC021
S113166037FC2DC020ED280F2A3040F08E32B9F41B
S113167036FC81C1232D2064322E19C036FE06C0EB
S11316808AE0989E200D1124922E11C0EAE02E9E2D
S1131690200D1124222EF32DF0623F2E08C08C362B
S11316A021F4832D8068382E02C0883641F4F70176
S11316B093FD859193FF81917F018111B3CF982F81
S11316C09F7D9554933028F40C5F1F4F9FE39983BB
S11316D00DC0833631F0833771F0833509F059C07A
S11316E021C0F801808189830E5F1F4F8824839471
S11316F0912C530113C02801F2E04F0E511CF80144
S1131700A080B18036FE03C0692D70E002C06FEF87
S11317107FEFC5010E94D00C4C018201F32DFF77AD
S11317203F2E16C0280122E0420E511CF801A08071
S1131730B18036FE03C0692D70E002C06FEF7FEF09
S1131740C5010E94C50C4C01F32DF0683F2E8201A7
S113175033FC1BC0822D90E088169906B0F4B601C4
S113176080E290E00E94DB0C2A94F4CFF50137FC70
S1131770859137FE81915F01B60190E00E94DB0CF8
S113178021102A9421E0821A91088114910471F79E
S1131790E8C0843611F0893641F5F80137FE07C0F8
S11317A060817181828193810C5F1F4F08C06081C9
S11317B07181072E000C880B990B0E5F1F4FF32DC0
S11317C0FF763F2E97FF09C090958095709561959F
S11317D07F4F8F4F9F4FF0683F2E2AE030E0A301E8
S11317E00E94170D882E861845C0853731F4232DA5
S11317F02F7EB22E2AE030E025C0932D997FB92E9A
S11318008F36C1F018F4883579F0B5C0803719F0F7
S1131810883721F0B0C0E92FE061BE2EB4FE0DC0C0
S1131820FB2DF460BF2E09C034FE0AC0292F2660A8
S1131830B22E06C028E030E005C020E130E002C04E
S113184020E132E0F801B7FE07C060817181828136
S113185093810C5F1F4F06C06081718180E090E02E
S11318600E5F1F4FA3010E94170D882E8618FB2DB3
S1131870FF773F2E36FE0DC0232D2E7FA22E891416
S113188058F434FE0BC032FC09C0832D8E7EA82E82
S113189005C0B82CA32C03C0B82C01C0B92CA4FEDD
S11318A00FC0FE01E80DF11D8081803321F49A2DD3
S11318B0997EA92E09C0A2FE06C0B394B39404C0B5
S11318C08A2D867809F0B394A3FC11C0A0FE06C04B
S11318D0B21488F4280C922C9B180EC0B21460F435
S11318E0B60180E290E00E94DB0CB394F7CFB2140F
S11318F018F42B1802C0982C212CA4FE10C0B60199
S113190080E390E00E94DB0CA2FE17C0A1FC03C0A0
S113191088E790E002C088E590E0B6010CC08A2D0B
S1131920867859F0A1FE02C08BE201C080E2A7FCD8
S11319308DE2B60190E00E94DB0C891438F4B60104
S113194080E390E00E94DB0C9A94F7CF8A94F30131
S1131950E80DF11D8081B60190E00E94DB0C81103E
S1131960F5CF222009F442CEB60180E290E00E9435
S1131970DB0C2A94F6CFF6018681978102C08FEFA3
S11319809FEF2B96E2E10C94910DFC0105906150C0
S113199070400110D8F7809590958E0F9F1F089581
S11319A0FC016150704001900110D8F7809590952A
S11319B08E0F9F1F08950F931F93CF93DF93FB0107
S11319C0238121FD03C08FEF9FEF2CC022FF16C09F
S11319D046815781248135814217530744F4A081FD
S11319E0B1819D012F5F3F4F318320838C932681EA
S11319F037812F5F3F4F3783268314C08B01EC015F
S1131A00FB010084F185E02D0995892BE1F6D801CD
S1131A1016968D919C911797019617969C938E9389
S1131A201697CE01DF91CF911F910F910895FA017E
S1131A30AA27283051F1203181F1E8946F936E7F09
S1131A406E5F7F4F8F4F9F4FAF4FB1E03ED0B4E0FA
S1131A503CD0670F781F891F9A1FA11D680F791F3B
S1131A608A1F911DA11D6A0F711D811D911DA11D4C
S1131A7020D009F468943F912AE0269F112430195C
S1131A80305D3193DEF6CF010895462F4770405DF7
S1131A904193B3E00FD0C9F7F6CF462F4F70405DA6
S1131AA04A3318F0495D31FD4052419302D0A9F701
S1131AB0EACFB4E0A6959795879577956795BA95FB
S1131AC0C9F700976105710508959B01AC010A2EC1
S1131AD006945795479537952795BA95C9F7620F98
S1131AE0731F841F951FA01D08952F923F924F923C
S1131AF05F926F927F928F929F92AF92BF92CF929A
S1131B00DF92EF92FF920F931F93CF93DF93CDB7A2
S1131B10DEB7CA1BDB0B0FB6F894DEBF0FBECDBF1A
S1131B2009942A88398848885F846E847D848C84EB
S1131B309B84AA84B984C884DF80EE80FD800C81F4
S1131B401B81AA81B981CE0FD11D0FB6F894DEBFD7
S10F1B500FBECDBFED010895F894FFCF47
S1131B5CFFFF2725640025642E25303475200050A2
S1131B6C6C6179205069616E6F2E2E2E2E2E2E00F4
S1131B7C506C61792056696F6C696E2E2E2E2E2E48
S1131B8C00426C7565746F6F74682E2E2E2E2E2E7B
S1131B9C2E00546F79205069616E6F204D757369F6
S1071BAC63210000AD
S9030000FC
