S00D00007069616E6F2E7372656300
S11300000C945B000C9470000C9470000C947000C1
S11300100C9470000C9470000C9470000C9470009C
S11300200C9470000C9470000C9470000C9470008C
S11300300C9470000C9470000C9470000C9470007C
S11300400C9470000C9470000C9470000C9470006C
S11300500C9470000C9470000C9470000C9470005C
S11300600C9470000C94700000030F031E032D0306
S11300703C034B035A0369039503A403B303C2036C
S1130080D103E003EF03FE032A04390448045704B0
S1130090660475048404930405A84CCDB2D44EB907
S11300A03836A9020C50B9918688083CA6AAAA2A17
S11300B0BE000000803F11241FBECFEFD8E0DEBF9A
S11300C0CDBF11E0A0E0B1E0E2E5FFE002C00590A1
S11300D00D92A433B107D9F70E9474020C94A707B8
S11300E00C940000982F907F9BB94398459AEFE9B0
S11300F0FFE03197F1F700C000004598EFE9FFE019
S11301003197F1F700C00000F0E18F9FC001112486
S11301108BB9459A8FE99FE00197F1F700C0000081
S11301204598EFE9FFE03197F1F700C0000008952A
S113013080EF8AB987B1886387B980E28BB9459A21
S11301408FE99FE00197F1F700C0000045988FE91F
S11301509FE00197F1F700C0000088E20E9472005E
S11301608FE99FE00197F1F700C000008CE00E9446
S113017072008FE99FE00197F1F700C0000080E86A
S11301800E9472000895982F907F9BB9439A459AD4
S1130190EFE3FFE13197F1F700C000004598EFE38A
S11301A0FFE13197F1F700C00000F0E18F9FC0013B
S11301B011248BB9459A8FE39FE10197F1F700C0B1
S11301C000004598EFE3FFE13197F1F700C000002C
S11301D00895CF93DF93EC018881882331F0219631
S11301E00E94C30089918111FBCFDF91CF910895C3
S11301F081E00E947200089520E4829FC0011124CE
S11302008068860F0E94720087EC90E00197F1F7F6
S113021000C0000008953A98419A28E030E080E058
S113022045E096B192FB992790F9880F892B409865
S1130230942F9A95F1F7409A2150310991F74198FA
S113024008955398419A28E030E080E045E099B160
S113025093FB992790F9880F892B4098942F9A95AE
S1130260F1F7409A2150310991F741980895529835
S1130270419A28E030E080E045E099B192FB99276B
S113028090F9880F892B4098942F9A95F1F7409A0A
S11302902150310991F741980895CF92DF92EF925E
S11302A0FF921F93CF93DF93239A2BED3FE049EC0A
S11302B050E40E94A4066B017C01C0E0D0E011EB85
S11302C0BE010D2E000C880B990B0E94EF0520E057
S11302D030E64AEE56E40E944505A70196010E94C5
S11302E0A4060E94110720E030E040E85FE30E948A
S11302F0D40420E030E04EEF52E40E94A4060E94B1
S1130300B70565B9812F8A95F1F72196CF30D105CC
S1130310B9F62B98DF91CF911F91FF90EF90DF906A
S1130320CF9008952F923F924F925F926F927F9257
S11303308F929F92AF92BF92CF92DF92EF92FF92F1
S11303400F931F93CF93DF931F92CDB7DEB74B016B
S11303505C01239A20E030E04AE755E40E94A406B9
S11303606B017C010E94BE052B013C016983352C85
S113037020E030E040E85FE3C701B6010E94400599
S113038088231CF491E080E002C0942D852D692E11
S1130390782E00E010E055245394212C498020E06D
S11303A030E040E85FE3C701B6010E9440058823BE
S11303B004F120E03FEF4FE757E4C701B6010E9484
S11303C09F061816B4F420E030E040E251E4C50181
S11303D0B4010E94A4060E94BE056115710509F4CA
S11303E061C080E991E00197F1F761507109C9F7A3
S11303F04DC0C3010197F1F72B9A20E030E040E8AB
S11304005FE3C701B6010E9440058823FCF020E0A9
S11304103FEF4FE757E4C701B6010E949F06181645
S1130420C4F420E030E040E251E4C501B4010E948C
S1130430A4060E94BE0561157105A9F080E991E04A
S11304400197F1F761507109C9F70DC0852D922DFF
S113045008C0842D932D05C0852D922D02C0852DB5
S1130460922D0197F1F72B980F5F1F4F0430110560
S113047009F095CF23C020E030E040E251E4C5010B
S1130480B4010E94A4060E94BE05D8CF2B9A20E096
S113049030E040E85FE3C701B6010E9440058823CD
S11304A054F7DACF2B9A20E030E040E85FE3C7014D
S11304B0B6010E9440058823B4F6D1CF0F90DF9196
S11304C0CF911F910F91FF90EF90DF90CF90BF904D
S11304D0AF909F908F907F906F905F904F903F90E0
S11304E02F9008952B980895C0E9D1E06AE67DE441
S11304F087E390E40E944D012197C1F7C0E9D1E060
S11305006AE67DE487E390E40E944D012197C1F7F8
S1130510C0E9D1E069E079EF8CE290E40E944D01FA
S11305202197C1F7C0E9D1E066E973E483E290E47E
S11305300E944D012197C1F7C0E9D1E064E278E25D
S11305408AE190E40E944D012197C1F7C0E9D1E00E
S11305506BEE73E781E190E40E944D012197C1F7AE
S1130560C0E9D1E06BE17FE289E090E40E944D01B3
S11305702197C1F70E9498000E94F80084EF91E04F
S113058020E931E0F9013197F1F70197D9F760E0FB
S113059080E00E94FC0080E091E00E94E90087B1C5
S11305A08FEF87B99AB18AB9912C812C712C612C67
S11305B00E940B01C82E0E942101B82E0E9437010F
S11305C0A82E189903C0C3C1219607C0C1E0D0E08A
S11305D0E92CF82C072D162DD12CFE013197C601DC
S11305E00E2E02C0959587950A94E2F780FF80C08D
S11305F0E830F10508F07CC0EC5CFF4F0C94A107D7
S11306002AE63DE447E350E46E2D7F2D802F912FA1
S11306100E94D404E62EF72E082F192FD5CF29E0F7
S113062039EF4CE250E46E2D7F2D802F912F0E94E4
S1130630D404E62EF72E082F192FC6CF26E933E46B
S113064043E250E46E2D7F2D802F912F0E94D4041D
S1130650E62EF72E082F192FB7CF24E238E24AE10D
S113066050E46E2D7F2D802F912F0E94D404E62E0E
S1130670F72E082F192FA8CF2BEE33E741E150E4D2
S11306806E2D7F2D802F912F0E94D404E62EF72EFD
S1130690082F192F99CF2BE13FE249E050E46E2D4A
S11306A07F2D802F912F0E94D404E62EF72E082F41
S11306B0192F8ACF23E536E941E050E46E2D7F2DD2
S11306C0802F912F0E94D404E62EF72E082F192F85
S11306D07BCF2DE031E744EF5FE36E2D7F2D802F3C
S11306E0912F0E94D404E62EF72E082F192F04C050
S11306F0C830D1050CF468CFC1E0D0E0CB2CD12CAC
S113070001C02196FE013197C6010E2E02C09595B7
S113071087950A94E2F780FF80C0E830F10508F07D
S11307207CC0E45CFF4F0C94A1072BEC30E147EE56
S11307305FE36E2D7F2D802F912F0E94D404E62E2F
S1130740F72E082F192FDDCF2EE338EE49ED5FE3A6
S11307506E2D7F2D802F912F0E94D404E62EF72E2C
S1130760082F192FCECF2BEA3FEC4DEC5FE36E2D13
S11307707F2D802F912F0E94D404E62EF72E082F70
S1130780192FBFCF2AE131E542EC5FE36E2D7F2DB7
S1130790802F912F0E94D404E62EF72E082F192FB4
S11307A0B0CF2BE935E547EB5FE36E2D7F2D802F2E
S11307B0912F0E94D404E62EF72E082F192FA1CFD3
S11307C02DEA3AEF4CEA5FE36E2D7F2D802F912FB7
S11307D00E94D404E62EF72E082F192F92CF26E973
S11307E033E443EA5FE36E2D7F2D802F912F0E9427
S11307F0D404E62EF72E082F192F83CF21E93FE0EA
S11308004AE95FE36E2D7F2D802F912F0E94D4043F
S1130810E62EF72E082F192F04C0C830D1050CF48A
S113082070CFC1E0D0E0CA2CD12C01C02196FE01CA
S11308303197C6010E2E02C0959587950A94E2F76A
S113084080FF80C0E830F10508F07CC0EC5BFF4F0E
S11308500C94A1072EE835E741E95FE36E2D7F2D67
S1130860802F912F0E94D404E62EF72E082F192FE3
S1130870DDCF27E634E449E85FE36E2D7F2D802F3A
S1130880912F0E94D404E62EF72E082F192FCECFD5
S113089020EE3CE941E85FE36E2D7F2D802F912F00
S11308A00E94D404E62EF72E082F192FBFCF27EE6F
S11308B03DE147E65FE36E2D7F2D802F912F0E944F
S11308C0D404E62EF72E082F192FB0CF2AE535EFE2
S11308D049E55FE36E2D7F2D802F912F0E94D40474
S11308E0E62EF72E082F192FA1CF28E43FEB4DE475
S11308F05FE36E2D7F2D802F912F0E94D404E62E6E
S1130900F72E082F192F92CF25E437E442E45FE352
S11309106E2D7F2D802F912F0E94D404E62EF72E6A
S1130920082F192F83CF20E73FE547E35FE36E2DC0
S11309307F2D802F912F0E94D404E62EF72E082FAE
S1130940192F1BC0C830D1050CF470CF16C0199BE9
S113095009C060E081E00E94FC0081E191E00E9416
S1130960E9001EC01A9B1CC060E081E00E94FC00EC
S113097082E291E00E94E90013C0292D382D472D11
S1130980562D6E2D7F2D802F912F0E949F061816B5
S11309903CF46E2D7F2D802F912F0E94920108CE62
S11309A00E94720205CE5058BB27AA270E94EB046E
S11309B00C9465060E94570638F00E945E0620F0EB
S11309C039F49F3F19F426F40C9454060EF4E09580
S11309D0E7FB0C944E06E92F0E94760658F3BA17EB
S11309E0620773078407950720F079F4A6F50C9441
S11309F098060EF4E0950B2EBA2FA02D0B01B90129
S1130A0090010C01CA01A0011124FF27591B99F080
S1130A10593F50F4503E68F11A16F040A22F232F8C
S1130A20342F4427585FF3CF469537952795A795DC
S1130A30F0405395C9F77EF41F16BA0B620B730B83
S1130A40840BBAF09150A1F0FF0FBB1F661F771FF4
S1130A50881FC2F70EC0BA0F621F731F841F48F4A9
S1130A60879577956795B795F7959E3F08F0B0CF32
S1130A709395880F08F09927EE0F97958795089519
S1130A800E942A0608F481E008950E9459050C94F6
S1130A9065060E945E0658F00E94570640F029F44D
S1130AA05F3F29F00C944E0651110C9499060C9456
S1130AB054060E94760668F39923B1F3552391F303
S1130AC0951B550BBB27AA2762177307840738F0B9
S1130AD09F5F5F4F220F331F441FAA1FA9F335D016
S1130AE00E2E3AF0E0E832D091505040E695001CCA
S1130AF0CAF72BD0FE2F29D0660F771F881FBB1F84
S1130B00261737074807AB07B0E809F0BB0B802D61
S1130B10BF01FF2793585F4F3AF09E3F510578F08D
S1130B200C944E060C9499065F3FE4F3983ED4F37C
S1130B30869577956795B795F7959F5FC9F7880F61
S1130B40911D9695879597F90895E1E0660F771FB3
S1130B50881FBB1F621773078407BA0720F0621B44
S1130B60730B840BBA0BEE1F88F7E09508950E946F
S1130B70BE056894B1110C94990608950E947E06EE
S1130B8088F09F5798F0B92F9927B751B0F0E1F04A
S1130B90660F771F881F991F1AF0BA95C9F714C0FA
S1130BA0B13091F00E949806B1E008950C94980633
S1130BB0672F782F8827B85F39F0B93FCCF3869533
S1130BC077956795B395D9F73EF490958095709590
S1130BD061957F4F8F4F9F4F0895E89409C097FB0D
S1130BE03EF490958095709561957F4F8F4F9F4F00
S1130BF09923A9F0F92F96E9BB279395F695879544
S1130C0077956795B795F111F8CFFAF4BB0F11F406
S1130C1060FF1BC06F5F7F4F8F4F9F4F16C08823AD
S1130C2011F096E911C0772321F09EE8872F762FE3
S1130C3005C0662371F096E8862F70E060E02AF024
S1130C409A95660F771F881FDAF7880F9695879510
S1130C5097F90895990F0008550FAA0BE0E8FEEFE5
S1130C6016161706E807F907C0F012161306E4076C
S1130C70F50798F0621B730B840B950B39F40A2665
S1130C8061F0232B242B252B21F408950A2609F443
S1130C90A140A6958FEF811D811D089597F99F6747
S1130CA080E870E060E008959FEF80EC08950024F0
S1130CB00A941616170618060906089500240A94BD
S1130CC012161306140605060895092E0394000C43
S1130CD011F4882352F0BB0F40F4BF2B11F460FFD2
S1130CE004C06F5F7F4F8F4F9F4F089557FD9058FB
S1130CF0440F551F59F05F3F71F04795880F97FBDC
S1130D00991F61F09F3F79F0879508951216130695
S1130D101406551FF2CF4695F1DF08C016161706C4
S1130D201806991FF1CF86957105610508940895F9
S1130D30E894BB2766277727CB0197F908950E948B
S1130D402A0608F48FEF08950E94B7060C946506EE
S1130D500E94570638F00E945E0620F0952311F099
S1130D600C944E060C94540611240C9499060E947B
S1130D70760670F3959FC1F3950F50E0551F629F5F
S1130D80F001729FBB27F00DB11D639FAA27F00DE0
S1130D90B11DAA1F649F6627B00DA11D661F829F07
S1130DA02227B00DA11D621F739FB00DA11D621FEC
S1130DB0839FA00D611D221F749F3327A00D611D09
S1130DC0231F849F600D211D822F762F6A2F1124EB
S1130DD09F5750409AF0F1F088234AF0EE0FFF1F1E
S1130DE0BB1F661F771F881F91505040A9F79E3F75
S1130DF0510580F00C944E060C9499065F3FE4F381
S1130E00983ED4F3869577956795B795F795E795CA
S1130E109F5FC1F7FE2B880F911D9695879597F9D3
S1130E2008959F930E941B070F9007FCEE5F0C949C
S1130E3044070C9454060E947E06D8F3E894E0E03C
S1130E40BB279F57F0F02AED3FE049EC06C0EE0FB8
S1130E50BB0F661F771F881F28F0B23A620773071B
S1130E60840728F0B25A620B730B840BE3959A95AE
S1130E7072F7803830F49A95BB0F661F771F881F6E
S1130E80D2F790480C945A07EF93E0FF07C0A2EA08
S1130E902AED3FE049EC5FEB0E94EB040E946506FB
S1130EA00F90039401FC9058E8E9F0E00C94660775
S1130EB09F3F31F0915020F4879577956795B795CA
S1130EC0880F911D9695879597F908959F938F9311
S1130ED07F936F93FF93EF939B01AC010E94A40651
S1130EE0EF91FF910E947A072F913F914F915F916B
S1130EF00C94A406DF93CF931F930F93FF92EF926A
S1130F00DF927B018C01689406C0DA2EEF010E9407
S1130F10B706FE01E894A591259135914591559127
S1130F20A6F3EF010E94EB04FE019701A801DA94F5
S1130F3069F7DF90EF90FF900F911F91CF91DF91B0
S1130F400895EE0FFF1F0590F491E02D0994F89495
S1050F50FFCFCD
S1130F52546F79205069616E6F204D7573696321F6
S1130F6200506C6179204775697461722E2E2E2EA1
S1130F722E00506C617920466C7574652E2E2E2ECF
S1070F822E2E00000B
S9030000FC
