:100000000C9434000C9499010C94D2010C94490086
:100010000C9449000C9449000C9449000C9449003C
:100020000C9449000C9449000C9449000C9449002C
:100030000C9449000C9449000C9449000C9449001C
:100040000C9449000C9449000C9449000C9449000C
:100050000C9449000C9449000C9449000C944900FC
:100060000C9449000C94490011241FBECFEFD8E036
:10007000DEBFCDBF11E0A0E0B1E0E6E4FFE002C0EA
:1000800005900D92A235B107D9F70E940E020C948B
:10009000A1070C940000982F907F9BB94398459A34
:1000A000EFE9FFE03197F1F700C000004598EFE974
:1000B000FFE03197F1F700C00000F0E18F9FC00131
:1000C00011248BB9459A8FE99FE00197F1F700C0A1
:1000D00000004598EFE9FFE03197F1F700C000001C
:1000E000089580EF8AB987B1886387B980E28BB9B8
:1000F000459A8FE99FE00197F1F700C0000045980D
:100100008FE99FE00197F1F700C0000088E20E94AC
:100110004B008FE99FE00197F1F700C000008CE0F1
:100120000E944B008FE99FE00197F1F700C00000AB
:1001300080E80E944B000895982F907F9BB9439AC6
:10014000459AEFE3FFE13197F1F700C000004598D1
:10015000EFE3FFE13197F1F700C00000F0E18F9F7E
:10016000C00111248BB9459A8FE39FE10197F1F704
:1001700000C000004598EFE3FFE13197F1F700C0C0
:1001800000000895CF93DF93EC018881882331F03C
:1001900021960E949C0089918111FBCFDF91CF9124
:1001A000089581E00E944B00089520E4829FC001E1
:1001B00011248068860F0E944B0087EC90E0019725
:1001C000F1F700C0000008951092C50087E6809303
:1001D000C40086E08093C20088E18093C100089546
:1001E000E0ECF0E0908195FFFDCF8093C60008958C
:1001F000CF93DF93EC018881882331F021960E9410
:10020000F00089918111FBCFDF91CF9108950F9379
:100210001F93CF93DF93CDB7DEB72A970FB6F8942D
:10022000DEBF0FBECDBF9F938F9382E091E09F937F
:100230008F938E010F5F1F4F1F930F930E94B70480
:10024000C8010E94F8000F900F900F900F900F9030
:100250000F902A960FB6F894DEBF0FBECDBFDF9188
:10026000CF911F910F9108958F929F92AF92BF925D
:10027000CF92DF92EF92FF920F931F93CF93DF9372
:10028000CDB7DEB72A970FB6F894DEBF0FBECDBF4D
:100290004B015C010E9486036B017C0120E030E48D
:1002A0004CE156E4C501B4010E944A044B015C01D3
:1002B00080E197E28C9DB0018D9D700D9C9D700D2D
:1002C0001124072E000C880B990B0E94BE039B0182
:1002D000AC01C501B4010E9419030E9486037F93FB
:1002E0006F93DF92CF9285E091E09F938F938E0181
:1002F0000F5F1F4F1F930F930E94B704C8010E9406
:10030000F8000FB6F894DEBF0FBECDBF2A960FB629
:10031000F894DEBF0FBECDBFDF91CF911F910F913B
:10032000FF90EF90DF90CF90BF90AF909F908F9015
:1003300008951F920F920FB60F9211242F933F939F
:100340004F935F936F937F938F939F93AF93BF93DD
:10035000EF93FF934A9B0BC01092010160E081E094
:100360000E94D5008EE091E00E94C2000AC081E0A8
:100370008093010160E00E94D5008FE191E00E942E
:10038000C200FF91EF91BF91AF919F918F917F91AB
:100390006F915F914F913F912F910F900FBE0F90F2
:1003A0001F9018951F920F920FB60F9211242F9342
:1003B0003F934F935F936F937F938F939F93AF93ED
:1003C000BF93EF93FF934B9B0EC060E080E00E94D1
:1003D000D50080E391E00E94C2000E94E40081E029
:1003E000809300010AC060E080E00E94D50081E4B3
:1003F00091E00E94C20010920001FF91EF91BF9125
:10040000AF919F918F917F916F915F914F913F91AC
:100410002F910F900FBE0F901F9018950E947100A2
:100420000E94D10084EF91E020E931E0F901319799
:10043000F1F70197D9F760E081E00E94D5008EE0E6
:1004400091E00E94C2000E94E400C0E9D1E008EC03
:1004500010E080E090E00E94070180E20E94F0003E
:100460006AE67DE487E390E40E9434018DE00E9417
:10047000F0008AE00E94F0000150110951F780E17C
:1004800097E2FE013197F1F70197D9F708EC10E0F8
:1004900080E090E00E94070180E20E94F00069E0A5
:1004A00079EF8CE290E40E9434018DE00E94F0002C
:1004B0008AE00E94F0000150110951F780E197E2B3
:1004C000FE013197F1F70197D9F708EC10E080E0D1
:1004D00090E00E94070180E20E94F00066E973E468
:1004E00083E290E40E9434018DE00E94F0008AE0F3
:1004F0000E94F0000150110951F780E197E2FE01DE
:100500003197F1F70197D9F708EC10E080E090E01F
:100510000E94070180E20E94F00060E77FE587E328
:100520009FE30E9434018DE00E94F0008AE00E9467
:10053000F0000150110951F780E395E7FE01319772
:10054000F1F70197D9F708EC10E081E090E00E9404
:10055000070180E20E94F0006AE67DE487E390E410
:100560000E9434018DE00E94F0008AE00E94F000B9
:100570000150110951F780E197E2FE013197F1F73F
:100580000197D9F708EC10E081E090E00E940701A4
:1005900080E20E94F00069E079EF8CE290E40E9432
:1005A00034018DE00E94F0008AE00E94F0000150CA
:1005B000110951F780E197E2FE013197F1F70197B8
:1005C000D9F708EC10E081E090E00E94070180E29A
:1005D0000E94F00066E973E483E290E40E94340133
:1005E0008DE00E94F0008AE00E94F00001501109A5
:1005F00051F780E197E2FE013197F1F70197D9F7C2
:1006000008EC10E081E090E00E94070180E20E9487
:10061000F00060E77FE587E39FE30E9434018DE00F
:100620000E94F0008AE00E94F0000150110951F789
:100630000ECF5058BB27AA270E9431030C941004F8
:100640000E94020438F00E94090420F039F49F3F10
:1006500019F426F40C94FF030EF4E095E7FB0C94D8
:10066000F903E92F0E94210458F3BA1762077307B0
:100670008407950720F079F4A6F50C9443040EF452
:10068000E0950B2EBA2FA02D0B01B90190010C01A2
:10069000CA01A0011124FF27591B99F0593F50F4BA
:1006A000503E68F11A16F040A22F232F342F442712
:1006B000585FF3CF469537952795A795F04053950A
:1006C000C9F77EF41F16BA0B620B730B840BBAF0DA
:1006D0009150A1F0FF0FBB1F661F771F881FC2F745
:1006E0000EC0BA0F621F731F841F48F48795779559
:1006F0006795B795F7959E3F08F0B0CF9395880F13
:1007000008F09927EE0F9795879508950E948D031D
:100710006894B1110C94440408950E94290488F04F
:100720009F5798F0B92F9927B751B0F0E1F0660FB5
:10073000771F881F991F1AF0BA95C9F714C0B130F6
:1007400091F00E944304B1E008950C944304672F94
:10075000782F8827B85F39F0B93FCCF38695779525
:100760006795B395D9F73EF490958095709561950E
:100770007F4F8F4F9F4F0895E89409C097FB3EF439
:1007800090958095709561957F4F8F4F9F4F9923DE
:10079000A9F0F92F96E9BB279395F695879577955C
:1007A0006795B795F111F8CFFAF4BB0F11F460FF1C
:1007B0001BC06F5F7F4F8F4F9F4F16C0882311F074
:1007C00096E911C0772321F09EE8872F762F05C088
:1007D000662371F096E8862F70E060E02AF09A9523
:1007E000660F771F881FDAF7880F9695879597F918
:1007F000089597F99F6780E870E060E008959FEFA3
:1008000080EC089500240A941616170618060906A7
:10081000089500240A941216130614060506089576
:10082000092E0394000C11F4882352F0BB0F40F4FE
:10083000BF2B11F460FF04C06F5F7F4F8F4F9F4F3E
:10084000089557FD9058440F551F59F05F3F71F0C0
:100850004795880F97FB991F61F09F3F79F0879527
:100860000895121613061406551FF2CF4695F1DFB0
:1008700008C0161617061806991FF1CF8695710540
:10088000610508940895E894BB2766277727CB0174
:1008900097F908950E945D040C9410040E940204CC
:1008A00038F00E94090420F0952311F00C94F9030C
:1008B0000C94FF0311240C9444040E94210470F34F
:1008C000959FC1F3950F50E0551F629FF001729FF5
:1008D000BB27F00DB11D639FAA27F00DB11DAA1F04
:1008E000649F6627B00DA11D661F829F2227B00D51
:1008F000A11D621F739FB00DA11D621F839FA00DDC
:10090000611D221F749F3327A00D611D231F849F2B
:10091000600D211D822F762F6A2F11249F57504082
:100920009AF0F1F088234AF0EE0FFF1FBB1F661FFD
:10093000771F881F91505040A9F79E3F510580F0C6
:100940000C94F9030C9444045F3FE4F3983ED4F311
:10095000869577956795B795F795E7959F5FC1F76A
:10096000FE2B880F911D9695879597F90895AEE017
:10097000B0E0EDEBF4E00C9478070D891E8986E079
:100980008C831A8309838FEF9FE79E838D83AE014B
:10099000475E5F4F6F89788DCE0101960E94D90422
:1009A000EF81F885E00FF11F10822E96E4E00C94A1
:1009B0009407ABE0B0E0EFEDF4E00C946A076C0153
:1009C0007B018A01FC0117821682838181FFCCC1E1
:1009D000CE0101963C01F6019381F70193FD8591CB
:1009E00093FF81917F01882309F4BAC1853239F4DC
:1009F00093FD859193FF81917F01853229F4B601A2
:100A000090E00E94D006E7CF912C212C312CFFE101
:100A1000F315D8F08B3279F038F4803279F08332E4
:100A2000A1F4232D20611DC08D3261F0803369F463
:100A3000232D216016C0832D8260382EE32DE460C3
:100A40003E2E2AC0F32DF8601DC037FC2DC020EDCE
:100A5000280F2A3040F08E32B9F436FC81C1232DA4
:100A60002064322E19C036FE06C08AE0989E200D02
:100A70001124922E11C0EAE02E9E200D1124222E68
:100A8000F32DF0623F2E08C08C3621F4832D806850
:100A9000382E02C0883641F4F70193FD859193FF0B
:100AA00081917F018111B3CF982F9F7D9554933011
:100AB00028F40C5F1F4F9FE399830DC0833631F0FC
:100AC000833771F0833509F059C021C0F801808166
:100AD00089830E5F1F4F88248394912C530113C088
:100AE0002801F2E04F0E511CF801A080B18036FEC3
:100AF00003C0692D70E002C06FEF7FEFC5010E9457
:100B0000C5064C018201F32DFF773F2E16C0280148
:100B100022E0420E511CF801A080B18036FE03C0D5
:100B2000692D70E002C06FEF7FEFC5010E94BA0629
:100B30004C01F32DF0683F2E820133FC1BC0822D47
:100B400090E088169906B0F4B60180E290E00E9429
:100B5000D0062A94F4CFF50137FC859137FE8191B8
:100B60005F01B60190E00E94D00621102A9421E096
:100B7000821A91088114910471F7E8C0843611F04B
:100B8000893641F5F80137FE07C0608171818281A5
:100B900093810C5F1F4F08C060817181072E000C8C
:100BA000880B990B0E5F1F4FF32DFF763F2E97FF9B
:100BB00009C090958095709561957F4F8F4F9F4F9D
:100BC000F0683F2E2AE030E0A3010E940C07882E37
:100BD000861845C0853731F4232D2F7EB22E2AE0AA
:100BE00030E025C0932D997FB92E8F36C1F018F4CF
:100BF000883579F0B5C0803719F0883721F0B0C05A
:100C0000E92FE061BE2EB4FE0DC0FB2DF460BF2EB7
:100C100009C034FE0AC0292F2660B22E06C028E083
:100C200030E005C020E130E002C020E132E0F80110
:100C3000B7FE07C060817181828193810C5F1F4F75
:100C400006C06081718180E090E00E5F1F4FA301BC
:100C50000E940C07882E8618FB2DFF773F2E36FE4C
:100C60000DC0232D2E7FA22E891458F434FE0BC004
:100C700032FC09C0832D8E7EA82E05C0B82CA32C73
:100C800003C0B82C01C0B92CA4FE0FC0FE01E80DB2
:100C9000F11D8081803321F49A2D997EA92E09C0FF
:100CA000A2FE06C0B394B39404C08A2D867809F0DE
:100CB000B394A3FC11C0A0FE06C0B21488F4280CA3
:100CC000922C9B180EC0B21460F4B60180E290E042
:100CD0000E94D006B394F7CFB21418F42B1802C0B8
:100CE000982C212CA4FE10C0B60180E390E00E9455
:100CF000D006A2FE17C0A1FC03C088E790E002C0A6
:100D000088E590E0B6010CC08A2D867859F0A1FEE6
:100D100002C08BE201C080E2A7FC8DE2B60190E048
:100D20000E94D006891438F4B60180E390E00E9456
:100D3000D0069A94F7CF8A94F301E80DF11D8081D3
:100D4000B60190E00E94D0068110F5CF222009F470
:100D500042CEB60180E290E00E94D0062A94F6CFFF
:100D6000F6018681978102C08FEF9FEF2B96E2E11B
:100D70000C948607FC010590615070400110D8F773
:100D8000809590958E0F9F1F0895FC0161507040D3
:100D900001900110D8F7809590958E0F9F1F0895B0
:100DA0000F931F93CF93DF93FB01238121FD03C09A
:100DB0008FEF9FEF2CC022FF16C046815781248100
:100DC00035814217530744F4A081B1819D012F5F03
:100DD0003F4F318320838C93268137812F5F3F4F94
:100DE0003783268314C08B01EC01FB010084F1855D
:100DF000E02D0995892BE1F6D80116968D919C91ED
:100E00001797019617969C938E931697CE01DF91B4
:100E1000CF911F910F910895FA01AA27283051F11F
:100E2000203181F1E8946F936E7F6E5F7F4F8F4F1B
:100E30009F4FAF4FB1E03ED0B4E03CD0670F781F7A
:100E4000891F9A1FA11D680F791F8A1F911DA11D5F
:100E50006A0F711D811D911DA11D20D009F4689498
:100E60003F912AE0269F11243019305D3193DEF640
:100E7000CF010895462F4770405D4193B3E00FD0F6
:100E8000C9F7F6CF462F4F70405D4A3318F0495DE1
:100E900031FD4052419302D0A9F7EACFB4E0A695C4
:100EA0009795879577956795BA95C9F700976105E6
:100EB000710508959B01AC010A2E0694579547953C
:100EC00037952795BA95C9F7620F731F841F951F31
:100ED000A01D08952F923F924F925F926F927F9242
:100EE0008F929F92AF92BF92CF92DF92EF92FF923A
:100EF0000F931F93CF93DF93CDB7DEB7CA1BDB0BE6
:100F00000FB6F894DEBF0FBECDBF09942A8839888A
:100F100048885F846E847D848C849B84AA84B98491
:100F2000C884DF80EE80FD800C811B81AA81B9819D
:100F3000CE0FD11D0FB6F894DEBF0FBECDBFED01B1
:060F40000895F894FFCFB4
:100F4600FFFF25640025642E253034752000506C83
:100F56006179205069616E6F2E2E2E2E2E2E005036
:100F66006C61792056696F6C696E2E2E2E2E2E00BE
:100F7600426C7565746F6F74682E2E2E2E2E2E2E73
:100F860000546F79205069616E6F204D75736963E7
:020F9600210038
:00000001FF
