S00D00007069616E6F2E7372656300
S11300000C944C000C9461000C9461000C946100FD
S11300100C9461000C9461000C9461000C946100D8
S11300200C9461000C9461000C9461000C946100C8
S11300300C9461000C9461000C9461000C946100B8
S11300400C9461000C9461000C9461000C946100A8
S11300500C9461000C9461000C9461000C94610098
S11300600C9461000C9461006D067C068B069A0664
S1130070A906B806C706D6060207110720072F07E8
S11300803E074D075C076B079707A607B507C4072C
S1130090D307E207F107000811241FBECFEFD8E011
S11300A0DEBFCDBF11E0A0E0B1E0E6E5F4E102C0BF
S11300B005900D92A231B107D9F70E94FE040C9469
S11300C0290A0C940000982F907F9BB94398459A75
S11300D0EFE9FFE03197F1F700C000004598EFE940
S11300E0FFE03197F1F700C00000F0E18F9FC001FD
S11300F011248BB9459A8FE99FE00197F1F700C06D
S113010000004598EFE9FFE03197F1F700C00000E7
S1130110089580EF8AB987B1886387B980E28BB983
S1130120459A8FE99FE00197F1F700C000004598D8
S11301308FE99FE00197F1F700C0000088E20E9478
S113014063008FE99FE00197F1F700C000008CE0A5
S11301500E9463008FE99FE00197F1F700C000005F
S113016080E80E9463000895982F907F9BB9439A7A
S1130170459AEFE3FFE13197F1F700C0000045989D
S1130180EFE3FFE13197F1F700C00000F0E18F9F4A
S1130190C00111248BB9459A8FE39FE10197F1F7D0
S11301A000C000004598EFE3FFE13197F1F700C08C
S11301B000000895CF93DF93EC018881882331F008
S11301C021960E94B40089918111FBCFDF91CF91D8
S11301D0089581E00E946300089520E4829FC00195
S11301E011248068860F0E94630087EC90E00197D9
S11301F0F1F700C0000008953A98419A28E030E0F1
S113020080E045E096B192FB992790F9880F892BFD
S11302104098942F9A95F1F7409A2150310991F71B
S1130220419808955398419A28E030E080E045E0F1
S113023099B193FB992790F9880F892B4098942FB3
S11302409A95F1F7409A2150310991F74198089510
S11302505298419A28E030E080E045E099B192FB61
S1130260992790F9880F892B4098942F9A95F1F744
S1130270409A2150310991F7419808952F923F9265
S11302804F925F926F927F928F929F92AF92BF92A2
S1130290CF92DF92EF92FF920F931F93CF93DF934E
S11302A0CDB7DEB7AA970FB6F894DEBF0FBECDBFA9
S11302B02B013C01239A20E030E048E251E40E9403
S11302C09B086B8F7C8F8D8F9E8F20E030E04AE7F8
S11302D055E40E94B60969837A838B839C830E94C8
S11302E00D096B017C0120E030E040E85FE36981A7
S11302F07A818B819C810E94960888231CF491E06A
S113030080E002C09C2D8D2D9FA388A71EA21DA254
S113031000E911E022242394312C2D863E866AC202
S113032020E030E040E85FE369817A818B819C8141
S11303300E949608882314F120E03FEF4FE757E42A
S113034069817A818B819C810E94B1091816B4F469
S113035020E030E040E251E46B8D7C8D8D8D9E8DEC
S11303600E94B6090E940D096115710551F0C8017A
S11303700197F1F761507109D1F703C0C1010197E9
S1130380F1F72B9A20E030E040EB51E4C301B201D5
S11303900E94B60920E030E048E251E40E949B0844
S11303A06B017C0120E030E04AE755E40E94B60985
S11303B04B015C0120E030E040E85FE30E949608D6
S11303C088231CF120E03FEF4FE757E4C501B40157
S11303D00E94B1091816A4F420E030E040E251E490
S11303E0C701B6010E94B6090E940D096115710585
S11303F089F0C8010197F1F761507109D1F70AC07A
S1130400C501B4010E940D0902C06D857E85CB0132
S11304100197F1F72B988D819E8101979E838D839F
S1130420892B09F07DCF2DEC3CEC48E251E4C3016B
S1130430B2010E949B086F8B788F898F9A8F20E07E
S113044030E04AE755E40E94B6096B017C010E9442
S11304500D094B015C0120E030E040E85FE3C70197
S1130460B6010E94960888231CF491E080E002C043
S1130470982D892D292E382E8AE090E09A87898735
S113048020E030E040E85FE3C701B6010E9496082F
S1130490882304F120E03FEF4FE757E4C701B6019A
S11304A00E94B1091816B4F420E030E040E251E4AF
S11304B06F89788D898D9A8D0E94B6090E940D09E5
S11304C06115710551F0C8010197F1F76150710987
S11304D0D1F703C0C1010197F1F72B9A2DEC3CEC45
S11304E040EB51E4C301B2010E94B6092DEC3CEC8F
S11304F048E251E40E949B086D837E838F83988732
S113050020E030E04AE755E40E94B6094B015C0163
S113051020E030E040E85FE30E94960888232CF155
S113052020E03FEF4FE757E4C501B4010E94B10951
S11305301816B4F420E030E040E251E46D817E818D
S11305408F8198850E94B6090E940D096115710575
S113055089F0C8010197F1F761507109D1F70AC018
S1130560C501B4010E940D0902C06D857E85CB01D1
S11305700197F1F72B9889859A8501979A8789873E
S1130580892B09F07DCF2AE939E949E251E4C30115
S1130590B2010E949B0869A37AA38BA39CA320E0C9
S11305A030E04AE755E40E94B6096B8B7C8B8D8B57
S11305B09E8B0E940D0969877A878B879C8720E030
S11305C030E040E85FE36B897C898D899E890E94D5
S11305D0960888231CF491E080E002C099858A85FE
S11305E09F8F88A385E090E09AA789A720E030E058
S11305F040E85FE36B897C898D899E890E94960817
S1130600882314F120E03FEF4FE757E46B897C899E
S11306108D899E890E94B1091816B4F420E030E057
S113062040E251E469A17AA18BA19CA10E94B60980
S11306300E940D096115710559F0C8010197F1F780
S113064061507109D1F704C08F8D98A10197F1F71A
S11306502B9A2AE939E941EB51E4C301B2010E9422
S1130660B6092AE939E949E251E40E949B086F87F7
S1130670788B898B9A8B20E030E04AE755E40E941E
S1130680B60969877A878B879C8720E030E040E849
S11306905FE30E94960888234CF120E03FEF4FE788
S11306A057E469857A858B859C850E94B109181663
S11306B0B4F420E030E040E251E46F857889898920
S11306C09A890E94B6090E940D096115710599F075
S11306D0C8010197F1F761507109D1F70CC0698520
S11306E07A858B859C850E940D0902C06D857E8567
S11306F0CB010197F1F72B9889A59AA501979AA7A1
S113070089A7892B09F072CF8AE090E09A878987BC
S113071020E030E040E85FE3C701B6010E9496089C
S1130720882304F120E03FEF4FE757E4C701B60107
S11307300E94B1091816B4F420E030E040E251E41C
S11307406F89788D898D9A8D0E94B6090E940D0952
S11307506115710551F0C8010197F1F761507109F4
S1130760D1F703C0C1010197F1F72B9A20E030E0E3
S113077040E85FE3C501B4010E94960888232CF188
S113078020E03FEF4FE757E4C501B4010E94B109EF
S11307901816B4F420E030E040E251E46D817E812B
S11307A08F8198850E94B6090E940D096115710513
S11307B089F0C8010197F1F761507109D1F70AC0B6
S11307C0C501B4010E940D0902C06D857E85CB016F
S11307D00197F1F72B9889859A8501979A878987DC
S11307E0892B09F095CF8DA19EA101969EA38DA37F
S11307F00A9739F084E190E02FA038A49E838D837A
S11308008FCDAA960FB6F894DEBF0FBECDBFDF9191
S1130810CF911F910F91FF90EF90DF90CF90BF90F9
S1130820AF909F908F907F906F905F904F903F908C
S11308302F9008952F923F924F925F926F927F92E2
S11308408F929F92AF92BF92CF92DF92EF92FF92DC
S11308500F931F93CF93DF932B013C0120E030E0F3
S11308604AE755E40E94B6096B017C010E940D0918
S11308704B015C01362E292C20E030E040E85FE398
S1130880C701B6010E94960888231CF491E080E019
S113089002C0982D892D892E982E0F2EF8ECAF2E9C
S11308A0B12CF02DC0E9D1E0239A00E010E020E063
S11308B030E040E85FE3C701B6010E949608882350
S11308C0FCF020E03FEF4FE757E4C701B6010E9478
S11308D0B1091816ACF420E030E040E251E4C30161
S11308E0B2010E94B6090E940D096115710509F44F
S11308F064C0CE010197F1F761507109D1F751C07D
S1130900C4010197F1F72B9A20E030E040E85FE35F
S1130910C701B6010E9496088823F4F020E03FEF57
S11309204FE757E4C701B6010E94B1091816BCF499
S113093020E030E040E251E4C301B2010E94B60974
S11309400E940D0961157105A1F0CE010197F1F71F
S113095061507109D1F70DC081E090E008C0832D8A
S1130960922D05C081E090E002C081E090E0019703
S1130970F1F72B980F5F1F4F0430110509F097CF43
S113098081E0A81AB10809F08FCF23C020E030E03D
S113099040E251E4C301B2010E94B6090E940D096C
S11309A0D4CF2B9A20E030E040E85FE3C701B601E2
S11309B00E949608882354F7D5CF2B9A20E030E084
S11309C040E85FE3C701B6010E94960888238CF6CD
S11309D0CCCFDF91CF911F910F91FF90EF90DF90DB
S11309E0CF90BF90AF909F908F907F906F905F90CB
S11309F04F903F902F9008952B9808950E9489005E
S1130A000E94E90084EF91E020E931E0F901319797
S1130A10F1F70197D9F760E080E00E94ED0080E0F3
S1130A2091E00E94DA006AE67DE487E390E40E94A4
S1130A303E0169E079EF8CE290E40E943E0166E9B0
S1130A4073E483E290E40E943E0164E278E28AE186
S1130A5090E40E943E016BEE73E781E190E40E9412
S1130A603E016BE17FE289E090E40E943E0163E590
S1130A7076E981E090E40E943E016DE071E784EF45
S1130A809FE30E943E016BEC70E187EE9FE30E94BE
S1130A903E016EE378EE89ED9FE30E943E016BEA2E
S1130AA07FEC8DEC9FE30E943E016AE171E582ECEC
S1130AB09FE30E943E016BE975E587EB9FE30E948B
S1130AC03E016DEA7AEF8CEA9FE30E943E0166E9FB
S1130AD073E483EA9FE30E943E0161E97FE08AE9CF
S1130AE09FE30E943E016EE875E781E99FE30E945F
S1130AF03E0167E674E489E89FE30E943E0160EEEC
S1130B007CE981E89FE30E943E0167EE7DE187E690
S1130B109FE30E943E016AE575EF89E59FE30E9429
S1130B203E0168E47FEB8DE49FE30E943E0165E4AF
S1130B3077E482E49FE30E943E0160E77FE587E378
S1130B409FE30E943E0180E29EE420E931E0F90146
S1130B503197F1F70197D9F76AE67DE487E390E4EA
S1130B600E941A0469E079EF8CE290E40E941A046E
S1130B7066E973E483E290E40E941A0464E278E292
S1130B808AE190E40E941A046BEE73E781E190E439
S1130B900E941A046BE17FE289E090E40E941A0447
S1130BA063E576E981E090E40E941A046DE071E760
S1130BB084EF9FE30E941A046BEC70E187EE9FE3DD
S1130BC00E941A046EE378EE89ED9FE30E941A04F2
S1130BD06BEA7FEC8DEC9FE30E941A046AE171E5F5
S1130BE082EC9FE30E941A046BE975E587EB9FE3AF
S1130BF00E941A046DEA7AEF8CEA9FE30E941A04B9
S1130C0066E973E483EA9FE30E941A0461E97FE0E2
S1130C108AE99FE30E941A046EE875E781E99FE37D
S1130C200E941A0467E674E489E89FE30E941A04A8
S1130C3060EE7CE981E89FE30E941A0467EE7DE19F
S1130C4087E69FE30E941A046AE575EF89E59FE34E
S1130C500E941A0468E47FEB8DE49FE30E941A0467
S1130C6065E477E482E49FE30E941A0460E77FE589
S1130C7087E39FE30E941A0487B18FEF87B99AB183
S1130C808AB9912C812C712C612C0E94FC00C82EF5
S1130C900E941201B82E0E942801A82E189903C0A0
S1130CA0D5C1219607C0C1E0D0E0E92CF82C072D6E
S1130CB0162DD12CFE013197C6010E2E02C095953A
S1130CC087950A94E2F780FF80C0E830F10508F0C8
S1130CD07CC0EC5CFF4F0C94230A2AE63DE447E316
S1130CE050E46E2D7F2D802F912F0E942A08E62E2E
S1130CF0F72E082F192FD5CF29E039EF4CE250E415
S1130D006E2D7F2D802F912F0E942A08E62EF72E1C
S1130D10082F192FC6CF26E933E443E250E46E2DA1
S1130D207F2D802F912F0E942A08E62EF72E082F60
S1130D30192FB7CF24E238E24AE150E46E2D7F2D1B
S1130D40802F912F0E942A08E62EF72E082F192FA4
S1130D50A8CF2BEE33E741E150E46E2D7F2D802F99
S1130D60912F0E942A08E62EF72E082F192F99CFCB
S1130D702BE13FE249E050E46E2D7F2D802F912F2F
S1130D800E942A08E62EF72E082F192F8ACF23E572
S1130D9036E941E050E46E2D7F2D802F912F0E9483
S1130DA02A08E62EF72E082F192F7BCF2DE031E7E6
S1130DB044EF5FE36E2D7F2D802F912F0E942A0830
S1130DC0E62EF72E082F192F04C0C830D1050CF4D5
S1130DD068CFC1E0D0E0CB2CD12C01C02196FE011C
S1130DE03197C6010E2E02C0959587950A94E2F7B5
S1130DF080FF80C0E830F10508F07CC0E45CFF4F60
S1130E000C94230A2BEC30E147EE5FE36E2D7F2D2B
S1130E10802F912F0E942A08E62EF72E082F192FD3
S1130E20DDCF2EE338EE49ED5FE36E2D7F2D802F6D
S1130E30912F0E942A08E62EF72E082F192FCECFC5
S1130E402BEA3FEC4DEC5FE36E2D7F2D802F912F2D
S1130E500E942A08E62EF72E082F192FBFCF2AE169
S1130E6031E542EC5FE36E2D7F2D802F912F0E94A0
S1130E702A08E62EF72E082F192FB0CF2BE935E5D7
S1130E8047EB5FE36E2D7F2D802F912F0E942A0860
S1130E90E62EF72E082F192FA1CF2DEA3AEF4CEAB0
S1130EA05FE36E2D7F2D802F912F0E942A08E62E5E
S1130EB0F72E082F192F92CF26E933E443EA5FE394
S1130EC06E2D7F2D802F912F0E942A08E62EF72E5B
S1130ED0082F192F83CF21E93FE04AE95FE36E2D04
S1130EE07F2D802F912F0E942A08E62EF72E082F9F
S1130EF0192F04C0C830D1050CF470CFC1E0D0E084
S1130F00CA2CD12C01C02196FE013197C6010E2EA8
S1130F1002C0959587950A94E2F780FF80C0E83077
S1130F20F10508F07CC0EC5BFF4F0C94230A2EE81B
S1130F3035E741E95FE36E2D7F2D802F912F0E94CD
S1130F402A08E62EF72E082F192FDDCF27E634E4E2
S1130F5049E85FE36E2D7F2D802F912F0E942A0890
S1130F60E62EF72E082F192FCECF20EE3CE941E8CC
S1130F705FE36E2D7F2D802F912F0E942A08E62E8D
S1130F80F72E082F192FBFCF27EE3DE147E65FE389
S1130F906E2D7F2D802F912F0E942A08E62EF72E8A
S1130FA0082F192FB0CF2AE535EF49E55FE36E2D01
S1130FB07F2D802F912F0E942A08E62EF72E082FCE
S1130FC0192FA1CF28E43FEB4DE45FE36E2D7F2D75
S1130FD0802F912F0E942A08E62EF72E082F192F12
S1130FE092CF25E437E442E45FE36E2D7F2D802F1A
S1130FF0912F0E942A08E62EF72E082F192F83CF4F
S113100020E73FE547E35FE36E2D7F2D802F912F8F
S11310100E942A08E62EF72E082F192F04C0C83084
S1131020D1050CF470CF292D382D472D562D6E2D5A
S11310307F2D802F912F0E94B10918163CF46E2D3C
S11310407F2D802F912F0E941A041FCE0E94FC0432
S11310501CCE5058BB27AA270E9441080C9477093C
S11310600E94690938F00E94700920F039F49F3F0A
S113107019F426F40C9466090EF4E095E7FB0C943D
S11310806009E92F0E94880958F3BA1762077307A9
S11310908407950720F079F4A6F50C94AA090EF4B8
S11310A0E0950B2EBA2FA02D0B01B90190010C0174
S11310B0CA01A0011124FF27591B99F0593F50F48C
S11310C0503E68F11A16F040A22F232F342F4427E4
S11310D0585FF3CF469537952795A795F0405395DC
S11310E0C9F77EF41F16BA0B620B730B840BBAF0AC
S11310F09150A1F0FF0FBB1F661F771F881FC2F717
S11311000EC0BA0F621F731F841F48F4879577952A
S11311106795B795F7959E3F08F0B0CF9395880FE4
S113112008F09927EE0F9795879508950E943C093A
S113113008F481E008950E94AF080C9477090E9496
S1131140700958F00E94690940F029F45F3F29F0C2
S11311500C94600951110C94AB090C9466090E941B
S1131160880968F39923B1F3552391F3951B550B23
S1131170BB27AA2762177307840738F09F5F5F4F66
S1131180220F331F441FAA1FA9F335D00E2E3AF0A5
S1131190E0E832D091505040E695001CCAF72BD0BD
S11311A0FE2F29D0660F771F881FBB1F261737070E
S11311B04807AB07B0E809F0BB0B802DBF01FF2740
S11311C093585F4F3AF09E3F510578F00C946009B4
S11311D00C94AB095F3FE4F3983ED4F3869577957E
S11311E06795B795F7959F5FC9F7880F911D9695F9
S11311F0879597F90895E1E0660F771F881FBB1F55
S1131200621773078407BA0720F0621B730B840B01
S1131210BA0BEE1F88F7E09508950E94900988F0B4
S11312209F5798F0B92F9927B751B0F0E1F0660FA6
S1131230771F881F991F1AF0BA95C9F714C0B130E7
S113124091F00E94AA09B1E008950C94AA09672FAD
S1131250782F8827B85F39F0B93FCCF38695779516
S11312606795B395D9F73EF49095809570956195FF
S11312707F4F8F4F9F4F0895990F0008550FAA0B6A
S1131280E0E8FEEF16161706E807F907C0F0121695
S11312901306E407F50798F0621B730B840B950B98
S11312A039F40A2661F0232B242B252B21F40895ED
S11312B00A2609F4A140A6958FEF811D811D08958A
S11312C097F99F6780E870E060E008959FEF80ECF5
S11312D0089500240A941616170618060906089598
S11312E000240A9412161306140605060895092EFE
S11312F00394000C11F4882352F0BB0F40F4BF2B6D
S113130011F460FF04C06F5F7F4F8F4F9F4F0895AC
S113131057FD9058440F551F59F05F3F71F04795A2
S1131320880F97FB991F61F09F3F79F08795089587
S1131330121613061406551FF2CF4695F1DF08C0A6
S1131340161617061806991FF1CF869571056105C3
S113135008940895E894BB2766277727CB0197F96B
S113136008950E943C0908F48FEF08950E94C9096A
S11313700C9477090E94690938F00E94700920F0E2
S1131380952311F00C9460090C94660911240C94B3
S1131390AB090E94880970F3959FC1F3950F50E043
S11313A0551F629FF001729FBB27F00DB11D639F13
S11313B0AA27F00DB11DAA1F649F6627B00DA11DB9
S11313C0661F829F2227B00DA11D621F739FB00D5F
S11313D0A11D621F839FA00D611D221F749F3327CF
S11313E0A00D611D231F849F600D211D822F762F68
S11313F06A2F11249F5750409AF0F1F088234AF045
S1131400EE0FFF1FBB1F661F771F881F91505040B0
S1131410A9F79E3F510580F00C9460090C94AB0928
S11314205F3FE4F3983ED4F3869577956795B79537
S1131430F795E7959F5FC1F7FE2B880F911D969551
S1131440879597F90895EE0FFF1F0590F491E02D0D
S10914500994F894FFCF9B
S1131456546F79205069616E6F204D7573696321ED
S1051466000080
S9030000FC
