S00D00007069616E6F2E7372656300
S11300000C944C000C9461000C9461000C946100FD
S11300100C9461000C9461000C9461000C946100D8
S11300200C9461000C9461000C9461000C946100C8
S11300300C9461000C9461000C9461000C946100B8
S11300400C9461000C9461000C9461000C946100A8
S11300500C9461000C9461000C9461000C94610098
S11300600C9461000C946100690278028702960284
S1130070A502B402C302D202FE020D031C032B0329
S11300803A034903580367039303A203B103C0036C
S1130090CF03DE03ED03FC0311241FBECFEFD8E032
S11300A0DEBFCDBF11E0A0E0B1E0EAE6FBE002C0B4
S11300B005900D92A232B107D9F70E941E020C944A
S11300C0B3050C940000982F907F9BB94398459AF0
S11300D0E9EFF0E03197F1F700C000004598E9EF4F
S11300E0F0E03197F1F700C00000F0E18F9FC0010C
S11300F011248BB9459A89EF90E00197F1F700C07C
S113010000004598E9EFF0E03197F1F700C00000F6
S1130110089580EF8AB987B1886387B980E28BB983
S1130120459A89EF90E00197F1F700C000004598E7
S113013089EF90E00197F1F700C0000088E20E9487
S1130140630089EF90E00197F1F700C000008CE0B4
S11301500E94630089EF90E00197F1F700C000006E
S113016080E80E9463000895982F907F9BB9439A7A
S1130170459AE3EFF1E03197F1F700C000004598AC
S1130180E3EFF1E03197F1F700C00000F0E18F9F59
S1130190C00111248BB9459A83EF91E00197F1F7DF
S11301A000C000004598E3EFF1E03197F1F700C09B
S11301B000000895CF93DF93EC018881882331F008
S11301C021960E94B40089918111FBCFDF91CF91D8
S11301D0089581E00E946300089520E4829FC00195
S11301E011248068860F0E94630080E18A95F1F7EC
S11301F000C008953A98419A28E030E080E045E054
S113020096B192FB992790F9880F892B4098942FE7
S11302109A95F1F7409A2150310991F74198089540
S11302205398419A28E030E080E045E099B193FB8F
S1130230992790F9880F892B4098942F9A95F1F774
S1130240409A2150310991F7419808955298419A62
S113025028E030E080E045E099B192FB992790F9DD
S1130260880F892B4098942F9A95F1F7409A215042
S1130270310991F7419808952F923F924F925F92DE
S11302806F927F928F929F92AF92BF92CF92DF92A2
S1130290EF92FF920F931F93CF93DF931F92CDB7EB
S11302A0DEB74B015C01239A20E030E04AE755E4D5
S11302B00E9440056B017C010E9497042B013C01C4
S11302C06983352C20E030E040E85FE3C701B601E4
S11302D00E94920488231CF491E080E002C0942DD3
S11302E0852D692E782E00E010E055245394212C9E
S11302F0498020E030E040E85FE3C701B6010E9496
S11303009204882304F120E03FEF4FE757E4C7014C
S1130310B6010E943B051816B4F420E030E040E238
S113032051E4C501B4010E9440050E94970461157F
S1130330710509F461C080E991E00197F1F761501A
S11303407109C9F74DC0C3010197F1F72B9A20E059
S113035030E040E85FE3C701B6010E9492048823BD
S1130360FCF020E03FEF4FE757E4C701B6010E94DD
S11303703B051816C4F420E030E040E251E4C50126
S1130380B4010E9440050E94970461157105A9F00B
S113039080E991E00197F1F761507109C9F70DC047
S11303A0852D922D08C0842D932D05C0852D922D69
S11303B002C0852D922D0197F1F72B980F5F1F4FE7
S11303C00430110509F095CF23C020E030E040E26D
S11303D051E4C501B4010E9440050E949704D8CF9E
S11303E02B9A20E030E040E85FE3C701B6010E94A9
S11303F09204882354F7DACF2B9A20E030E040E8C7
S11304005FE3C701B6010E9492048823B4F6D1CFFA
S11304100F90DF91CF911F910F91FF90EF90DF909C
S1130420CF90BF90AF909F908F907F906F905F9090
S11304304F903F902F9008952B9808950E94890023
S11304400E94E90084EF91E020E931E0F90131975D
S1130450F1F70197D9F760E080E00E94ED0080E0B9
S113046091E00E94DA0060E081E00E94ED0081E109
S113047091E00E94DA0087B18FEF87B99AB18AB907
S1130480912C812C712C612C0E94FA00C82E0E94A0
S11304901001B82E0E942601A82EC1E0D0E0E92C5C
S11304A0F82C072D162DD12C01C02196FE01319771
S11304B0C6010E2E02C0959587950A94E2F780FF37
S11304C080C0E830F10508F07CC0EC5CFF4F0C9470
S11304D0AD052AE63DE447E350E46E2D7F2D802FE1
S11304E0912F0E942604E62EF72E082F192FDDCF18
S11304F029E039EF4CE250E46E2D7F2D802F912FAF
S11305000E942604E62EF72E082F192FCECF26E9B7
S113051033E443E250E46E2D7F2D802F912F0E940F
S11305202604E62EF72E082F192FBFCF24E238E237
S11305304AE150E46E2D7F2D802F912F0E942604D6
S1130540E62EF72E082F192FB0CF2BEE33E741E11B
S113055050E46E2D7F2D802F912F0E942604E62ECD
S1130560F72E082F192FA1CF2BE13FE249E050E4E9
S11305706E2D7F2D802F912F0E942604E62EF72EBC
S1130580082F192F92CF23E536E941E050E46E2D70
S11305907F2D802F912F0E942604E62EF72E082F00
S11305A0192F83CF2DE031E744EF5FE36E2D7F2DCC
S11305B0802F912F0E942604E62EF72E082F192F44
S11305C004C0C830D1050CF470CFC1E0D0E0CB2C0E
S11305D0D12C01C02196FE013197C6010E2E02C016
S11305E0959587950A94E2F780FF80C0E830F1057D
S11305F008F07CC0E45CFF4F0C94AD052BEC30E1BB
S113060047EE5FE36E2D7F2D802F912F0E942604ED
S1130610E62EF72E082F192FDDCF2EE338EE49ED05
S11306205FE36E2D7F2D802F912F0E942604E62EEE
S1130630F72E082F192FCECF2BEA3FEC4DEC5FE3BA
S11306406E2D7F2D802F912F0E942604E62EF72EEB
S1130650082F192FBFCF2AE131E542EC5FE36E2D5D
S11306607F2D802F912F0E942604E62EF72E082F2F
S1130670192FB0CF2BE935E547EB5FE36E2D7F2DC6
S1130680802F912F0E942604E62EF72E082F192F73
S1130690A1CF2DEA3AEF4CEA5FE36E2D7F2D802F38
S11306A0912F0E942604E62EF72E082F192F92CFA1
S11306B026E933E443EA5FE36E2D7F2D802F912FEB
S11306C00E942604E62EF72E082F192F83CF21E946
S11306D03FE04AE95FE36E2D7F2D802F912F0E942A
S11306E02604E62EF72E082F192F04C0C830D10592
S11306F00CF470CFC1E0D0E0CA2CD12C01C02196FB
S1130700FE013197C6010E2E02C0959587950A9475
S1130710E2F780FF80C0E830F10508F07CC0EC5BB4
S1130720FF4F0C94AD052EE835E741E95FE36E2DEC
S11307307F2D802F912F0E942604E62EF72E082F5E
S1130740192FDDCF27E634E449E85FE36E2D7F2DD2
S1130750802F912F0E942604E62EF72E082F192FA2
S1130760CECF20EE3CE941E85FE36E2D7F2D802F54
S1130770912F0E942604E62EF72E082F192FBFCFA3
S113078027EE3DE147E65FE36E2D7F2D802F912F0D
S11307900E942604E62EF72E082F192FB0CF2AE543
S11307A035EF49E55FE36E2D7F2D802F912F0E9459
S11307B02604E62EF72E082F192FA1CF28E43FEBAD
S11307C04DE45FE36E2D7F2D802F912F0E94260430
S11307D0E62EF72E082F192F92CF25E437E442E4B2
S11307E05FE36E2D7F2D802F912F0E942604E62E2D
S11307F0F72E082F192F83CF20E73FE547E35FE368
S11308006E2D7F2D802F912F0E942604E62EF72E29
S1130810082F192F04C0C830D1050CF470CF292D2E
S1130820382D472D562D6E2D7F2D802F912F0E9410
S11308303B0518163CF46E2D7F2D802F912F0E94BE
S11308403C0122CE0E941C021FCE5058BB27AA276F
S11308500E943D040C9401050E94F30438F00E94A8
S1130860FA0420F039F49F3F19F426F40C94F004B0
S11308700EF4E095E7FB0C94EA04E92F0E941205BC
S113088058F3BA17620773078407950720F079F4C1
S1130890A6F50C9434050EF4E0950B2EBA2FA02D7A
S11308A00B01B90190010C01CA01A0011124FF2719
S11308B0591B99F0593F50F4503E68F11A16F04014
S11308C0A22F232F342F4427585FF3CF4695379513
S11308D02795A795F0405395C9F77EF41F16BA0BD8
S11308E0620B730B840BBAF09150A1F0FF0FBB1F86
S11308F0661F771F881FC2F70EC0BA0F621F731FCF
S1130900841F48F4879577956795B795F7959E3F2B
S113091008F0B0CF9395880F08F09927EE0F9795BC
S1130920879508950E94C60408F481E008950E9402
S11309301A0588F09F5798F0B92F9927B751B0F04E
S1130940E1F0660F771F881F991F1AF0BA95C9F74F
S113095014C0B13091F00E943405B1E008950C94B4
S11309603405672F782F8827B85F39F0B93FCCF367
S1130970869577956795B395D9F73EF490958095CC
S1130980709561957F4F8F4F9F4F0895990F000881
S1130990550FAA0BE0E8FEEF16161706E807F9074D
S11309A0C0F012161306E407F50798F0621B730BE8
S11309B0840B950B39F40A2661F0232B242B252B69
S11309C021F408950A2609F4A140A6958FEF811D0C
S11309D0811D089597F99F6780E870E060E00895AD
S11309E09FEF80EC089500240A9416161706180643
S11309F00906089500240A9412161306140605061F
S1130A000895092E0394000C11F4882352F0BB0FAF
S1130A1040F4BF2B11F460FF04C06F5F7F4F8F4F12
S1130A209F4F089557FD9058440F551F59F05F3F4D
S1130A3071F04795880F97FB991F61F09F3F79F0FC
S1130A4087950895121613061406551FF2CF46957E
S1130A50F1DF08C0161617061806991FF1CF869500
S1130A607105610508940895E894BB2766277727E4
S1130A70CB0197F908950E94C60408F48FEF0895F6
S1130A800E9453050C9401050E94F30438F00E945F
S1130A90FA0420F0952311F00C94EA040C94F00469
S1130AA011240C9435050E94120570F3959FC1F32F
S1130AB0950F50E0551F629FF001729FBB27F00D08
S1130AC0B11D639FAA27F00DB11DAA1F649F66275D
S1130AD0B00DA11D661F829F2227B00DA11D621FAC
S1130AE0739FB00DA11D621F839FA00D611D221F66
S1130AF0749F3327A00D611D231F849F600D211D4A
S1130B00822F762F6A2F11249F5750409AF0F1F0CC
S1130B1088234AF0EE0FFF1FBB1F661F771F881F35
S1130B2091505040A9F79E3F510580F00C94EA047F
S1130B300C9435055F3FE4F3983ED4F3869577959E
S1130B406795B795F795E7959F5FC1F7FE2B880FDB
S1130B50911D9695879597F90895EE0FFF1F0590BF
S10D0B60F491E02D0994F894FFCFFE
S1130B6A546F79205069616E6F204D7573696321E2
S1130B7A00506C6179205069616E6F2E2E2E2E2ED4
S1050B8A2E0037
S9030000FC
