:100000000C944C000C9406060C943F060C94610072
:100010000C9461000C9461000C9461000C946100DC
:100020000C9461000C9461000C9461000C946100CC
:100030000C9461000C9461000C9461000C946100BC
:100040000C9461000C9461000C9461000C946100AC
:100050000C9461000C9461000C9461000C9461009C
:100060000C9461000C9461001B05220529053005E4
:1000700037053E0545054C056E0575057C05830570
:100080008A05910598059F05C205C905D005D705C4
:10009000DE05E505EC05F30511241FBECFEFD8E022
:1000A000DEBFCDBF11E0A0E0B1E0EAEDF1E102C0BA
:1000B00005900D92A634B107D9F70E9479060C94E9
:1000C000EB080C940000982F907F9BB94398459AB9
:1000D000EFE9FFE03197F1F700C000004598EFE944
:1000E000FFE03197F1F700C00000F0E18F9FC00101
:1000F00011248BB9459A8FE99FE00197F1F700C071
:1001000000004598EFE9FFE03197F1F700C00000EB
:10011000089580EF8AB987B1886387B980E28BB987
:10012000459A8FE99FE00197F1F700C000004598DC
:100130008FE99FE00197F1F700C0000088E20E947C
:1001400063008FE99FE00197F1F700C000008CE0A9
:100150000E9463008FE99FE00197F1F700C0000063
:1001600080E80E9463000895982F907F9BB9439A7E
:10017000459AEFE3FFE13197F1F700C000004598A1
:10018000EFE3FFE13197F1F700C00000F0E18F9F4E
:10019000C00111248BB9459A8FE39FE10197F1F7D4
:1001A00000C000004598EFE3FFE13197F1F700C090
:1001B00000000895CF93DF93EC018881882331F00C
:1001C00021960E94B40089918111FBCFDF91CF91DC
:1001D000089581E00E946300089520E4829FC00199
:1001E00011248068860F0E94630087EC90E00197DD
:1001F000F1F700C0000008952F923F924F925F9256
:100200006F927F928F929F92AF92BF92CF92DF9226
:10021000EF92FF920F931F93CF93DF93CDB7DEB78B
:100220006C970FB6F894DEBF0FBECDBF69837A839B
:100230008B839C83239A20E030E048E251E469817B
:100240007A818B819C810E945D076D837E838F8381
:10025000988720E030E04AE755E40E9478082B01B7
:100260003C010E94CF076B017C0120E030E040E8B8
:100270005FE3C301B2010E94580788231CF491E098
:1002800080E002C09C2D8D2D292E382E84E190E037
:1002900000E911E09A87898720E030E040E85FE3D9
:1002A000C301B2010E945807882304F120E03FEF08
:1002B0004FE757E4C301B2010E9473081816B4F463
:1002C00020E030E040E251E46D817E818F819885AD
:1002D0000E9478080E94CF076115710551F0C8018E
:1002E0000197F1F761507109D1F703C0C10101977E
:1002F000F1F72B9A20E030E040EB51E469817A81FC
:100300008B819C810E94780820E030E048E251E433
:100310000E945D076B017C0120E030E04AE755E474
:100320000E9478084B015C0120E030E040E85FE388
:100330000E94580788231CF120E03FEF4FE757E465
:10034000C501B4010E9473081816A4F420E030E03F
:1003500040E251E4C701B6010E9478080E94CF072D
:100360006115710589F0C8010197F1F761507109B4
:10037000D1F70AC0C501B4010E94CF0702C061E0F5
:1003800070E0CB010197F1F72B9889859A85019749
:100390009A878987892B09F07FCF2DEC3CEC48E2C6
:1003A00051E469817A818B819C810E945D076D8710
:1003B0007E878F87988B20E030E04AE755E40E94E3
:1003C00078082B013C010E94CF076B017C0120E0E3
:1003D00030E040E85FE3C301B2010E945807882380
:1003E0001CF491E080E002C09C2D8D2D292E382E2A
:1003F0008AE090E000E911E0BB24B394A12C9A8B31
:10040000898BBD82A98620E030E040E85FE3C3012C
:10041000B2010E945807882304F120E03FEF4FE724
:1004200057E4C301B2010E9473081816B4F420E027
:1004300030E040E251E46D857E858F8598890E9489
:1004400078080E94CF076115710551F0C801019726
:10045000F1F761507109D1F703C0C1010197F1F7BC
:100460002B9A2DEC3CEC40EB51E469817A818B8135
:100470009C810E9478082DEC3CEC48E251E40E94FB
:100480005D074B015C0120E030E04AE755E40E9443
:1004900078086B017C0120E030E040E85FE30E94D7
:1004A000580788231CF120E03FEF4FE757E4C701CE
:1004B000B6010E9473081816A4F420E030E040E270
:1004C00051E4C501B4010E9478080E94CF0761156C
:1004D000710589F0C8010197F1F761507109D1F7F1
:1004E0000AC0C701B6010E94CF0702C06D8179859D
:1004F000CB010197F1F72B9889899A8901979A8BFB
:10050000898B892B09F07FCF8B8A9C8AAD8ABE8A22
:100510002AE939E949E251E469817A818B819C8138
:100520000E945D076F8B788F898F9A8F20E030E073
:100530004AE755E40E94780869877A878B879C8709
:100540000E94CF074B015C0120E030E040E85FE310
:1005500069857A858B859C850E94580788231CF4C1
:1005600091E080E002C0982D892D998B8A8B85E0DF
:1005700090E000E911E09C8F8B8F20E030E040E8B4
:100580005FE369857A858B859C850E94580788235F
:1005900014F120E03FEF4FE757E469857A858B85BA
:1005A0009C850E9473081816B4F420E030E040E205
:1005B00051E46F89788D898D9A8D0E9478080E9408
:1005C000CF076115710559F0C8010197F1F7615026
:1005D0007109D1F704C089899A890197F1F72B9A9B
:1005E0002AE939E941EB51E469817A818B819C8167
:1005F0000E9478082AE939E949E251E40E945D073E
:100600006D837E838F83988720E030E04AE755E44E
:100610000E9478084B015C0120E030E040E85FE395
:100620000E94580788232CF120E03FEF4FE757E462
:10063000C501B4010E9473081816B4F420E030E03C
:1006400040E251E46D817E818F8198850E94780817
:100650000E94CF076115710589F0C8010197F1F774
:1006600061507109D1F70AC0C501B4010E94CF07DA
:1006700002C061E070E0CB010197F1F72B988B8D00
:100680009C8D01979C8F8B8F892B09F076CF0AE088
:1006900010E0BB24B394A12C20E030E040E85FE3FD
:1006A000C301B2010E94580788230CF120E03FEFFC
:1006B0004FE757E4C301B2010E9473081816BCF457
:1006C00020E030E040E251E46D857E858F85988999
:1006D0000E9478080E94CF076115710559F080E9E2
:1006E00091E00197F1F761507109C9F703C0C101A9
:1006F0000197F1F72B9A20E030E040E85FE3C70173
:10070000B6010E945807882334F120E03FEF4FE7FD
:1007100057E4C701B6010E9473081816BCF420E024
:1007200030E040E251E46B897C898D899E890E948A
:1007300078080E94CF076115710591F080E991E07A
:100740000197F1F761507109C9F70AC0C701B601F5
:100750000E94CF0702C06B2D7A2DCB010197F1F7D4
:100760002B980150110909F097CF6C960FB6F894A9
:10077000DEBF0FBECDBFDF91CF911F910F91FF90D4
:10078000EF90DF90CF90BF90AF909F908F907F9031
:100790006F905F904F903F902F9008952F923F92CF
:1007A0004F925F926F927F928F929F92AF92BF9281
:1007B000CF92DF92EF92FF920F931F93CF93DF932D
:1007C0001F92CDB7DEB74B015C01239A20E030E0E9
:1007D0004AE755E40E9478086B017C010E94CF072C
:1007E0002B013C016983352C20E030E040E85FE3D9
:1007F000C701B6010E94580788231CF491E080E0ED
:1008000002C0942D852D692E782E00E010E055242D
:100810005394212C498020E030E040E85FE3C70199
:10082000B6010E945807882304F120E03FEF4FE70C
:1008300057E4C701B6010E9473081816B4F420E00B
:1008400030E040E251E4C501B4010E9478080E9402
:10085000CF076115710509F461C080E991E0019746
:10086000F1F761507109C9F74DC0C3010197F1F764
:100870002B9A20E030E040E85FE3C701B6010E9418
:1008800058078823FCF020E03FEF4FE757E4C7010B
:10089000B6010E9473081816C4F420E030E040E26C
:1008A00051E4C501B4010E9478080E94CF07611588
:1008B0007105A9F080E991E00197F1F761507109A4
:1008C000C9F70DC0852D922D08C0842D932D05C02C
:1008D000852D922D02C0852D922D0197F1F72B9831
:1008E0000F5F1F4F0430110509F095CF23C020E0A2
:1008F00030E040E251E4C501B4010E9478080E9452
:10090000CF07D8CF2B9A20E030E040E85FE3C70163
:10091000B6010E945807882354F7DACF2B9A20E0BB
:1009200030E040E85FE3C701B6010E945807882322
:10093000B4F6D1CF0F90DF91CF911F910F91FF901F
:10094000EF90DF90CF90BF90AF909F908F907F906F
:100950006F905F904F903F902F9008952B9808953F
:100960003A98419A28E030E080E045E096B192FB69
:10097000992790F9880F892B4098942F9A95F1F731
:10098000409A2150310991F7419808952498419A4D
:1009900028E030E080E045E093B192959170880FB7
:1009A000892B4098942F9A95F1F7409A215031095C
:1009B00099F7419808952598419A28E030E080E021
:1009C00045E093B195FB992790F9880F892B4098C2
:1009D000942F9A95F1F7409A2150310991F7419857
:1009E0000895CF92DF92FF920F931F93CF93DF93DF
:1009F0000E94B004C82E0E94C604082F0E94DB0487
:100A0000F82EC1E0D0E060E070E0CB01D12C01C055
:100A10002196FE01319796010E2E02C0359527953D
:100A20000A94E2F720FF3FC0E830F105E0F5EC5C06
:100A3000FF4F0C94E5082AE63DE447E350E40E94AA
:100A4000EC06E6CF29E039EF4CE250E40E94EC06D8
:100A5000DFCF26E933E443E250E40E94EC06D8CF2E
:100A600024E238E24AE150E40E94EC06D1CF2BEEBA
:100A700033E741E150E40E94EC06CACF2BE13FE2AC
:100A800049E050E40E94EC06C3CF23E536E941E09B
:100A900050E40E94EC06BCCF2DE031E744EF5FE369
:100AA0000E94EC0604C0C830D1050CF4B1CFC1E0FF
:100AB000D0E010E001C02196FE01319798010E2E82
:100AC00002C0359527950A94E2F720FF3FC0E83031
:100AD000F105E0F5E45CFF4F0C94E5082BEC30E108
:100AE00047EE5FE30E94EC06E6CF2EE338EE49EDD9
:100AF0005FE30E94EC06DFCF2BEA3FEC4DEC5FE3B7
:100B00000E94EC06D8CF2AE131E542EC5FE30E9477
:100B1000EC06D1CF2BE935E547EB5FE30E94EC060D
:100B2000CACF2DEA3AEF4CEA5FE30E94EC06C3CF4E
:100B300026E933E443EA5FE30E94EC06BCCF21E9F7
:100B40003FE04AE95FE30E94EC0604C0C830D105EB
:100B50000CF4B1CFC1E0D0E00F2D10E001C0219620
:100B6000FE01319798010E2E02C0359527950A9403
:100B7000E2F720FF3FC0E830F105E0F5EC5BFF4F06
:100B80000C94E5082EE835E741E95FE30E94EC06A6
:100B9000E6CF27E634E449E85FE30E94EC06DFCFC6
:100BA00020EE3CE941E85FE30E94EC06D8CF27EE57
:100BB0003DE147E65FE30E94EC06D1CF2AE535EF41
:100BC00049E55FE30E94EC06CACF28E43FEB4DE421
:100BD0005FE30E94EC06C3CF25E437E442E45FE321
:100BE0000E94EC06BCCF20E73FE547E35FE30E94AD
:100BF000EC0604C0C830D1050CF4B1CFDF91CF9121
:100C00001F910F91FF90DF90CF9008951F920F9248
:100C10000FB60F9211242F933F934F935F936F93CF
:100C20007F938F939F93AF93BF93EF93FF934A9BD1
:100C30000BC01092010160E081E00E94ED0082E0B3
:100C400091E00E94DA000AC081E08093010160E037
:100C50000E94ED0083E191E00E94DA00FF91EF91A4
:100C6000BF91AF919F918F917F916F915F914F91C4
:100C70003F912F910F900FBE0F901F9018951F92CC
:100C80000F920FB60F9211242F933F934F935F93C0
:100C90006F937F938F939F93AF93BF93EF93FF9344
:100CA0004B9B0CC060E080E00E94ED0084E291E08C
:100CB0000E94DA0081E0809300010AC060E080E0D9
:100CC0000E94ED0085E391E00E94DA00109200019D
:100CD000FF91EF91BF91AF919F918F917F916F9114
:100CE0005F914F913F912F910F900FBE0F901F90EA
:100CF00018950E9489000E94E90084EF91E020E9A4
:100D000031E0F9013197F1F70197D9F787B18FEF0A
:100D100087B99AB18AB9E9E6F0E080818160808381
:100D2000E89A808184608083E99A4A9B0BC0109284
:100D3000010160E081E00E94ED0082E091E00E940C
:100D4000DA000AC081E08093010160E00E94ED00BA
:100D500083E191E00E94DA004B9B0CC060E080E0F0
:100D60000E94ED0084E291E00E94DA0081E080932D
:100D700000010AC060E080E00E94ED0085E391E0A0
:100D80000E94DA001092000178940E94F1046B0135
:100D90007C0120E030E0A9010E9473081816C4F419
:100DA00080910101811109C0809100018111EDCF75
:100DB000C701B6010E94CE03E8CF813031F78091A0
:100DC00000018111E2CFC701B6010E94FC00DDCF16
:100DD0000E94AE04DACF5058BB27AA270E9403070F
:100DE0000C9439080E942B0838F00E94320820F039
:100DF00039F49F3F19F426F40C9428080EF4E0957A
:100E0000E7FB0C942208E92F0E944A0858F3BA170E
:100E1000620773078407950720F079F4A6F50C9410
:100E20006C080EF4E0950B2EBA2FA02D0B01B90122
:100E300090010C01CA01A0011124FF27591B99F050
:100E4000593F50F4503E68F11A16F040A22F232F5C
:100E5000342F4427585FF3CF469537952795A795AC
:100E6000F0405395C9F77EF41F16BA0B620B730B53
:100E7000840BBAF09150A1F0FF0FBB1F661F771FC4
:100E8000881FC2F70EC0BA0F621F731F841F48F479
:100E9000879577956795B795F7959E3F08F0B0CF02
:100EA0009395880F08F09927EE0F979587950895E9
:100EB0000E94FE0708F481E008950E9471070C94D7
:100EC00039080E94320858F00E942B0840F029F49B
:100ED0005F3F29F00C94220851110C946D080C947A
:100EE00028080E944A0868F39923B1F3552391F327
:100EF000951B550BBB27AA2762177307840738F089
:100F00009F5F5F4F220F331F441FAA1FA9F335D0E5
:100F10000E2E3AF0E0E832D091505040E695001C99
:100F2000CAF72BD0FE2F29D0660F771F881FBB1F53
:100F3000261737074807AB07B0E809F0BB0B802D31
:100F4000BF01FF2793585F4F3AF09E3F510578F05D
:100F50000C9422080C946D085F3FE4F3983ED4F3A0
:100F6000869577956795B795F7959F5FC9F7880F31
:100F7000911D9695879597F90895E1E0660F771F83
:100F8000881FBB1F621773078407BA0720F0621B14
:100F9000730B840BBA0BEE1F88F7E09508950E943F
:100FA000520888F09F5798F0B92F9927B751B0F0A1
:100FB000E1F0660F771F881F991F1AF0BA95C9F7DD
:100FC00014C0B13091F00E946C08B1E008950C9407
:100FD0006C08672F782F8827B85F39F0B93FCCF3BA
:100FE000869577956795B395D9F73EF4909580955A
:100FF000709561957F4F8F4F9F4F0895990F00080F
:10100000550FAA0BE0E8FEEF16161706E807F907DA
:10101000C0F012161306E407F50798F0621B730B75
:10102000840B950B39F40A2661F0232B242B252BF6
:1010300021F408950A2609F4A140A6958FEF811D99
:10104000811D089597F99F6780E870E060E008953A
:101050009FEF80EC089500240A94161617061806D0
:101060000906089500240A941216130614060506AC
:101070000895092E0394000C11F4882352F0BB0F3D
:1010800040F4BF2B11F460FF04C06F5F7F4F8F4FA0
:101090009F4F089557FD9058440F551F59F05F3FDB
:1010A00071F04795880F97FB991F61F09F3F79F08A
:1010B00087950895121613061406551FF2CF46950C
:1010C000F1DF08C0161617061806991FF1CF86958E
:1010D0007105610508940895E894BB276627772772
:1010E000CB0197F908950E94FE0708F48FEF089549
:1010F0000E948B080C9439080E942B0838F00E943B
:10110000320820F0952311F00C9422080C94280842
:1011100011240C946D080E944A0870F3959FC1F346
:10112000950F50E0551F629FF001729FBB27F00D95
:10113000B11D639FAA27F00DB11DAA1F649F6627EA
:10114000B00DA11D661F829F2227B00DA11D621F39
:10115000739FB00DA11D621F839FA00D611D221FF3
:10116000749F3327A00D611D231F849F600D211DD7
:10117000822F762F6A2F11249F5750409AF0F1F05A
:1011800088234AF0EE0FFF1FBB1F661F771F881FC3
:1011900091505040A9F79E3F510580F00C942208D1
:1011A0000C946D085F3FE4F3983ED4F386957795F1
:1011B0006795B795F795E7959F5FC1F7FE2B880F69
:1011C000911D9695879597F90895EE0FFF1F05904D
:0A11D000F491E02D0994F894FFCF8C
:1011DA00FFFF506C6179205069616E6F2E2E2E2EA2
:1011EA002E2E00506C61792056696F6C696E2E2E16
:1011FA002E2E2E00426C7565746F6F74682E2E2E1B
:10120A002E2E2E2E00546F79205069616E6F204D5C
:06121A00757369632100F9
:00000001FF
