S00D00007069616E6F2E7372656300
S11300000C944C000C94BB060C94F4060C94610004
S11300100C9461000C9461000C9461000C946100D8
S11300200C9461000C9461000C9461000C946100C8
S11300300C9461000C9461000C9461000C946100B8
S11300400C9461000C9461000C9461000C946100A8
S11300500C9461000C9461000C9461000C94610098
S11300600C9461000C946100D005D705DE05E5050C
S1130070EC05F305FA05010623062A0631063806BF
S11300803F0646064D06540677067E0685068C0610
S113009093069A06A106A80611241FBECFEFD8E046
S11300A0DEBFCDBF11E0A0E0B1E0ECEDF9E102C0AC
S11300B005900D92A235B107D9F70E9430070C9430
S11300C0EC0C0C940000982F907F9BB94398459AB0
S11300D0EFE9FFE03197F1F700C000004598EFE940
S11300E0FFE03197F1F700C00000F0E18F9FC001FD
S11300F011248BB9459A8FE99FE00197F1F700C06D
S113010000004598EFE9FFE03197F1F700C00000E7
S1130110089580EF8AB987B1886387B980E28BB983
S1130120459A8FE99FE00197F1F700C000004598D8
S11301308FE99FE00197F1F700C0000088E20E9478
S113014063008FE99FE00197F1F700C000008CE0A5
S11301500E9463008FE99FE00197F1F700C000005F
S113016080E80E9463000895982F907F9BB9439A7A
S1130170459AEFE3FFE13197F1F700C0000045989D
S1130180EFE3FFE13197F1F700C00000F0E18F9F4A
S1130190C00111248BB9459A8FE39FE10197F1F7D0
S11301A000C000004598EFE3FFE13197F1F700C08C
S11301B000000895CF93DF93EC018881882331F008
S11301C021960E94B40089918111FBCFDF91CF91D8
S11301D0089581E00E946300089520E4829FC00195
S11301E011248068860F0E94630087EC90E00197D9
S11301F0F1F700C0000008951092C50087E68093CF
S1130200C40086E08093C20088E18093C100089511
S1130210E0ECF0E0908195FFFDCF8093C600089557
S1130220CF93DF93EC018881882331F021960E94DB
S1130230080189918111FBCFDF91CF9108950F932C
S11302401F93CF93DF93CDB7DEB72A970FB6F894F9
S1130250DEBF0FBECDBF9F938F9382E091E09F934B
S11302608F938E010F5F1F4F1F930F930E94020AFB
S1130270C8010E9410010F900F900F900F900F90E3
S11302800F902A960FB6F894DEBF0FBECDBFDF9154
S1130290CF911F910F9108958F929F92AF92BF9229
S11302A0CF92DF92EF92FF920F931F93CF93DF933E
S11302B0CDB7DEB72A970FB6F894DEBF0FBECDBF19
S11302C04B015C010E94A2086B017C0120E030E438
S11302D04CE156E4C501B4010E948F094B015C0155
S11302E080E197E28C9DB0018D9D700D9C9D700DF9
S11302F01124072E000C880B990B0E94DA089B012D
S1130300AC01C501B4010E94BE070E94A2087F93FC
S11303106F93DF92CF9285E091E09F938F938E014C
S11303200F5F1F4F1F930F930E94020AC8010E9480
S113033010010FB6F894DEBF0FBECDBF2A960FB6DC
S1130340F894DEBF0FBECDBFDF91CF911F910F9107
S1130350FF90EF90DF90CF90BF90AF909F908F90E1
S113036008952F923F924F925F926F927F928F9255
S11303709F92AF92BF92CF92DF92EF92FF920F9330
S11303801F93CF93DF93CDB7DEB76C970FB6F89476
S1130390DEBF0FBECDBF69837A838B839C83239A90
S11303A020E030E048E251E469817A818B819C81CC
S11303B00E9430086D837E838F83988720E030E02D
S11303C04AE755E40E948F092B013C010E94A908C9
S11303D06B017C0120E030E040E85FE3C301B2013F
S11303E00E942B0888231CF491E080E002C09C2D1D
S11303F08D2D292E382E84E190E000E911E09A87B2
S1130400898720E030E040E85FE3C301B2010E9445
S11304102B08882304F120E03FEF4FE757E4C301A2
S1130420B2010E948A091816B4F420E030E040E2D8
S113043051E46D817E818F8198850E948F090E948D
S1130440A9086115710551F0C8010197F1F76150D0
S11304507109D1F703C0C1010197F1F72B9A20E08C
S113046030E040EB51E469817A818B819C810E9468
S11304708F0920E030E048E251E40E9430086B012B
S11304807C0120E030E04AE755E40E948F094B01EB
S11304905C0120E030E040E85FE30E942B08882301
S11304A01CF120E03FEF4FE757E4C501B4010E947F
S11304B08A091816A4F420E030E040E251E4C701B0
S11304C0B6010E948F090E94A9086115710589F07F
S11304D0C8010197F1F761507109D1F70AC0C5014C
S11304E0B4010E94A90802C061E070E0CB01019749
S11304F0F1F72B9889859A8501979A878987892BA3
S113050009F07FCF2DEC3CEC48E251E469817A811B
S11305108B819C810E9430086D877E878F87988BA2
S113052020E030E04AE755E40E948F092B013C01AA
S11305300E94A9086B017C0120E030E040E85FE301
S1130540C301B2010E942B0888231CF491E080E0CF
S113055002C09C2D8D2D292E382E8AE090E000E9D2
S113056011E0BB24B394A12C9A8B898BBD82A986FC
S113057020E030E040E85FE3C301B2010E942B08B1
S1130580882304F120E03FEF4FE757E4C301B201B1
S11305900E948A091816B4F420E030E040E251E4E5
S11305A06D857E858F8598890E948F090E94A90890
S11305B06115710551F0C8010197F1F76150710996
S11305C0D1F703C0C1010197F1F72B9A2DEC3CEC54
S11305D040EB51E469817A818B819C810E948F096F
S11305E02DEC3CEC48E251E40E9430084B015C01E4
S11305F020E030E04AE755E40E948F096B017C015A
S113060020E030E040E85FE30E942B0888231CF1DF
S113061020E03FEF4FE757E4C701B6010E948A0983
S11306201816A4F420E030E040E251E4C501B4011E
S11306300E948F090E94A9086115710589F0C801FB
S11306400197F1F761507109D1F70AC0C701B601EA
S11306500E94A90802C06D817985CB010197F1F749
S11306602B9889899A8901979A8B898B892B09F010
S11306707FCF8B8A9C8AAD8ABE8A2AE939E949E20E
S113068051E469817A818B819C810E9430086F8B4F
S1130690788F898F9A8F20E030E04AE755E40E94F2
S11306A08F0969877A878B879C870E94A9084B01E9
S11306B05C0120E030E040E85FE369857A858B8562
S11306C09C850E942B0888231CF491E080E002C0E2
S11306D0982D892D998B8A8B85E090E000E911E0B3
S11306E09C8F8B8F20E030E040E85FE369857A855A
S11306F08B859C850E942B08882314F120E03FEF12
S11307004FE757E469857A858B859C850E948A0921
S11307101816B4F420E030E040E251E46F89788D9B
S1130720898D9A8D0E948F090E94A908611571050F
S113073059F0C8010197F1F761507109D1F704C06C
S113074089899A890197F1F72B9A2AE939E941EBCA
S113075051E469817A818B819C810E948F092AE905
S113076039E949E251E40E9430086D837E838F8326
S1130770988720E030E04AE755E40E948F094B0156
S11307805C0120E030E040E85FE30E942B0888230E
S11307902CF120E03FEF4FE757E4C501B4010E947C
S11307A08A091816B4F420E030E040E251E46D8187
S11307B07E818F8198850E948F090E94A908611506
S11307C0710589F0C8010197F1F761507109D1F7FA
S11307D00AC0C501B4010E94A90802C061E070E02A
S11307E0CB010197F1F72B988B8D9C8D01979C8FF2
S11307F08B8F892B09F076CF0AE010E0BB24B394E9
S1130800A12C20E030E040E85FE3C301B2010E9484
S11308102B0888230CF120E03FEF4FE757E4C30196
S1130820B2010E948A091816BCF420E030E040E2CC
S113083051E46D857E858F8598890E948F090E9479
S1130840A9086115710559F080E991E00197F1F764
S113085061507109C9F703C0C1010197F1F72B9ADF
S113086020E030E040E85FE3C701B6010E942B08B6
S1130870882334F120E03FEF4FE757E4C701B60186
S11308800E948A091816BCF420E030E040E251E4EA
S11308906B897C898D899E890E948F090E94A90891
S11308A06115710591F080E991E00197F1F76150CC
S11308B07109C9F70AC0C701B6010E94A90802C09C
S11308C06B2D7A2DCB010197F1F72B98015011096B
S11308D009F097CF6C960FB6F894DEBF0FBECDBF6C
S11308E0DF91CF911F910F91FF90EF90DF90CF9008
S11308F0BF90AF909F908F907F906F905F904F903C
S11309003F902F9008952F923F924F925F926F9253
S11309107F928F929F92AF92BF92CF92DF92EF928B
S1130920FF920F931F93CF93DF931F92CDB7DEB740
S11309304B015C01239A20E030E04AE755E40E9431
S11309408F096B017C010E94A9082B013C0169837A
S1130950352C20E030E040E85FE3C701B6010E9497
S11309602B0888231CF491E080E002C0942D852D8F
S1130970692E782E00E010E055245394212C4980F0
S113098020E030E040E85FE3C701B6010E942B0895
S1130990882304F120E03FEF4FE757E4C701B60195
S11309A00E948A091816B4F420E030E040E251E4D1
S11309B0C501B4010E948F090E94A908611571053F
S11309C009F461C080E991E00197F1F76150710980
S11309D0C9F74DC0C3010197F1F72B9A20E030E02D
S11309E040E85FE3C701B6010E942B088823FCF0AE
S11309F020E03FEF4FE757E4C701B6010E948A09A0
S1130A001816C4F420E030E040E251E4C501B4011A
S1130A100E948F090E94A90861157105A9F080E957
S1130A2091E00197F1F761507109C9F70DC0852D67
S1130A30922D08C0842D932D05C0852D922D02C0C2
S1130A40852D922D0197F1F72B980F5F1F4F0430DE
S1130A50110509F095CF23C020E030E040E251E4D5
S1130A60C501B4010E948F090E94A908D8CF2B9A0E
S1130A7020E030E040E85FE3C701B6010E942B08A4
S1130A80882354F7DACF2B9A20E030E040E85FE384
S1130A90C701B6010E942B088823B4F6D1CF0F906A
S1130AA0DF91CF911F910F91FF90EF90DF90CF9046
S1130AB0BF90AF909F908F907F906F905F904F907A
S1130AC03F902F9008952B9808953A98419A28E0E2
S1130AD030E080E045E096B192FB992790F9880FC9
S1130AE0892B4098942F9A95F1F7409A2150310917
S1130AF091F7419808952498419A28E030E080E0E5
S1130B0045E093B192959170880F892B4098942F6A
S1130B109A95F1F7409A2150310999F7419808952F
S1130B202598419A28E030E080E045E093B195FBB8
S1130B30992790F9880F892B4098942F9A95F1F76B
S1130B40409A2150310991F741980895CF92DF924C
S1130B50FF920F931F93CF93DF930E946505C82ED6
S1130B600E947B05082F0E949005F82EC1E0D0E07A
S1130B7060E070E0CB01D12C01C02196FE013197D9
S1130B8096010E2E02C0359527950A94E2F720FFB0
S1130B903FC0E830F105E0F5EC5CFF4F0C94FC0934
S1130BA02AE63DE447E350E40E94BF07E6CF29E08C
S1130BB039EF4CE250E40E94BF07DFCF26E933E46B
S1130BC043E250E40E94BF07D8CF24E238E24AE16E
S1130BD050E40E94BF07D1CF2BEE33E741E150E44C
S1130BE00E94BF07CACF2BE13FE249E050E40E94D4
S1130BF0BF07C3CF23E536E941E050E40E94BF07B5
S1130C00BCCF2DE031E744EF5FE30E94BF0704C08F
S1130C10C830D1050CF4B1CFC1E0D0E010E001C080
S1130C202196FE01319798010E2E02C03595279525
S1130C300A94E2F720FF3FC0E830F105E0F5E45CF8
S1130C40FF4F0C94FC092BEC30E147EE5FE30E946C
S1130C50BF07E6CF2EE338EE49ED5FE30E94BF07FE
S1130C60DFCF2BEA3FEC4DEC5FE30E94BF07D8CF08
S1130C702AE131E542EC5FE30E94BF07D1CF2BE9C3
S1130C8035E547EB5FE30E94BF07CACF2DEA3AEF91
S1130C904CEA5FE30E94BF07C3CF26E933E443EA8B
S1130CA05FE30E94BF07BCCF21E93FE04AE95FE36D
S1130CB00E94BF0704C0C830D1050CF4B1CFC1E015
S1130CC0D0E00F2D10E001C02196FE01319798016C
S1130CD00E2E02C0359527950A94E2F720FF3FC0F7
S1130CE0E830F105E0F5EC5BFF4F0C94FC092EE8CD
S1130CF035E741E95FE30E94BF07E6CF27E634E426
S1130D0049E85FE30E94BF07DFCF20EE3CE941E8FA
S1130D105FE30E94BF07D8CF27EE3DE147E65FE3DC
S1130D200E94BF07D1CF2AE535EF49E55FE30E9472
S1130D30BF07CACF28E43FEB4DE45FE30E94BF073F
S1130D40C3CF25E437E442E45FE30E94BF07BCCF8E
S1130D5020E73FE547E35FE30E94BF0704C0C830D4
S1130D60D1050CF4B1CFDF91CF911F910F91FF907A
S1130D70DF90CF9008951F920F920FB60F92112417
S1130D802F933F934F935F936F937F938F939F938F
S1130D90AF93BF93EF93FF934A9B0BC01092010153
S1130DA060E081E00E94ED008EE091E00E94DA00B4
S1130DB00AC081E08093010160E00E94ED008FE1B0
S1130DC091E00E94DA00FF91EF91BF91AF919F9162
S1130DD08F917F916F915F914F913F912F910F90E0
S1130DE00FBE0F901F9018951F920F920FB60F927F
S1130DF011242F933F934F935F936F937F938F931C
S1130E009F93AF93BF93EF93FF934B9B0EC060E010
S1130E1080E00E94ED0080E391E00E94DA000E94ED
S1130E20FC0081E0809300010AC060E080E00E9441
S1130E30ED0081E491E00E94DA0010920001FF913C
S1130E40EF91BF91AF919F918F917F916F915F913E
S1130E504F913F912F910F900FBE0F901F901895B7
S1130E600E9489000E94E9000E946305C4E6D0E064
S1130E706AE67DE487E390E40E9483042197C1F746
S1130E800E94630587B18FEF87B99AB18AB9E9E601
S1130E90F0E0808181608083E89A8081846080832F
S1130EA0E99A4A9B0BC01092010160E081E00E9424
S1130EB0ED008EE091E00E94DA000AC081E08093A8
S1130EC0010160E00E94ED008FE191E00E94DA00F0
S1130ED04B9B0EC060E080E00E94ED0080E391E057
S1130EE00E94DA000E94FC0081E0809300010AC0A5
S1130EF060E080E00E94ED0081E491E00E94DA006D
S1130F001092000178940E94A6056B017C0120E0F8
S1130F1030E0A9010E948A0918166CF5809101013C
S1130F20811109C090910001911110C0C701B6014F
S1130F300E948304E8CF813049F49091000191111B
S1130F4005C0C701B6010E94B101DDCF9091000137
S1130F509130C9F690E00E941F0180E20E940801CE
S1130F60C701B6010E944C018DE00E9408018AE08D
S1130F700E940801C8CF0E946305C5CF5058BB2703
S1130F80AA270E94D6070C9450090E94420938F0FF
S1130F900E94490920F039F49F3F19F426F40C9477
S1130FA03F090EF4E095E7FB0C943909E92F0E9400
S1130FB0610958F3BA17620773078407950720F08D
S1130FC079F4A6F50C9483090EF4E0950B2EBA2F50
S1130FD0A02D0B01B90190010C01CA01A00111243B
S1130FE0FF27591B99F0593F50F4503E68F11A16E7
S1130FF0F040A22F232F342F4427585FF3CF469578
S113100037952795A795F0405395C9F77EF41F1699
S1131010BA0B620B730B840BBAF09150A1F0FF0F63
S1131020BB1F661F771F881FC2F70EC0BA0F621F4F
S1131030731F841F48F4879577956795B795F7953F
S11310409E3F08F0B0CF9395880F08F09927EE0FD4
S11310509795879508950E94150908F481E00895ED
S11310600E9444080C9450090E94490958F00E94B7
S1131070420940F029F45F3F29F00C9439095111D9
S11310800C9484090C943F090E94610968F3992324
S1131090B1F3552391F3951B550BBB27AA27621770
S11310A07307840738F09F5F5F4F220F331F441F7D
S11310B0AA1FA9F335D00E2E3AF0E0E832D09150B1
S11310C05040E695001CCAF72BD0FE2F29D0660F9E
S11310D0771F881FBB1F261737074807AB07B0E8E1
S11310E009F0BB0B802DBF01FF2793585F4F3AF0E7
S11310F09E3F510578F00C9439090C9484095F3FA4
S1131100E4F3983ED4F3869577956795B795F7956C
S11311109F5FC9F7880F911D9695879597F9089554
S1131120E1E0660F771F881FBB1F621773078407F0
S1131130BA0720F0621B730B840BBA0BEE1F88F7FF
S1131140E09508950E94A9086894B1110C9484094B
S113115008950E94690988F09F5798F0B92F99273C
S1131160B751B0F0E1F0660F771F881F991F1AF08E
S1131170BA95C9F714C0B13091F00E948309B1E067
S113118008950C948309672F782F8827B85F39F066
S1131190B93FCCF3869577956795B395D9F73EF427
S11311A090958095709561957F4F8F4F9F4F0895CF
S11311B0E89409C097FB3EF49095809570956195ED
S11311C07F4F8F4F9F4F9923A9F0F92F96E9BB27A3
S11311D09395F695879577956795B795F111F8CF1F
S11311E0FAF4BB0F11F460FF1BC06F5F7F4F8F4F8A
S11311F09F4F16C0882311F096E911C0772321F080
S11312009EE8872F762F05C0662371F096E8862F17
S113121070E060E02AF09A95660F771F881FDAF76E
S1131220880F9695879597F90895990F0008550F9B
S1131230AA0BE0E8FEEF16161706E807F907C0F058
S113124012161306E407F50798F0621B730B840B60
S1131250950B39F40A2661F0232B242B252B21F43A
S113126008950A2609F4A140A6958FEF811D811DDA
S1131270089597F99F6780E870E060E008959FEF14
S113128080EC089500240A94161617061806090619
S1131290089500240A9412161306140605060895E8
S11312A0092E0394000C11F4882352F0BB0F40F470
S11312B0BF2B11F460FF04C06F5F7F4F8F4F9F4FB0
S11312C0089557FD9058440F551F59F05F3F71F032
S11312D04795880F97FB991F61F09F3F79F0879599
S11312E00895121613061406551FF2CF4695F1DF22
S11312F008C0161617061806991FF1CF86957105B2
S1131300610508940895E894BB2766277727CB01E5
S113131097F908950E94150908F48FEF08950E9423
S1131320A2090C9450090E94420938F00E9449090C
S113133020F0952311F00C9439090C943F091124E1
S11313400C9484090E94610970F3959FC1F3950F71
S113135050E0551F629FF001729FBB27F00DB11D35
S1131360639FAA27F00DB11DAA1F649F6627B00DC5
S1131370A11D661F829F2227B00DA11D621F739FAE
S1131380B00DA11D621F839FA00D611D221F749FBC
S11313903327A00D611D231F849F600D211D822F03
S11313A0762F6A2F11249F5750409AF0F1F088232A
S11313B04AF0EE0FFF1FBB1F661F771F881F915057
S11313C05040A9F79E3F510580F00C9439090C94C4
S11313D084095F3FE4F3983ED4F386957795679547
S11313E0B795F795E7959F5FC1F7FE2B880F911D81
S11313F09695879597F90895EE0FFF1F0590F49140
S1131400E02D0994AEE0B0E0E8E0FAE00C94C30CFF
S11314100D891E8986E08C831A8309838FEF9FE7E9
S11314209E838D83AE01475E5F4F6F89788DCE01B9
S113143001960E94240AEF81F885E00FF11F1082C3
S11314402E96E4E00C94DF0CABE0B0E0EAE2FAE0C4
S11314500C94B50C6C017B018A01FC011782168285
S1131460838181FFCCC1CE0101963C01F6019381B9
S1131470F70193FD859193FF81917F01882309F4FE
S1131480BAC1853239F493FD859193FF81917F012F
S1131490853229F4B60190E00E941B0CE7CF912C11
S11314A0212C312CFFE1F315D8F08B3279F038F48C
S11314B0803279F08332A1F4232D20611DC08D3256
S11314C061F0803369F4232D216016C0832D82607E
S11314D0382EE32DE4603E2E2AC0F32DF8601DC0A3
S11314E037FC2DC020ED280F2A3040F08E32B9F49D
S11314F036FC81C1232D2064322E19C036FE06C06D
S11315008AE0989E200D1124922E11C0EAE02E9EAE
S1131510200D1124222EF32DF0623F2E08C08C36AC
S113152021F4832D8068382E02C0883641F4F701F7
S113153093FD859193FF81917F018111B3CF982F02
S11315409F7D9554933028F40C5F1F4F9FE399833C
S11315500DC0833631F0833771F0833509F059C0FB
S113156021C0F801808189830E5F1F4F88248394F2
S1131570912C530113C02801F2E04F0E511CF801C5
S1131580A080B18036FE03C0692D70E002C06FEF09
S11315907FEFC5010E94100C4C018201F32DFF77EF
S11315A03F2E16C0280122E0420E511CF801A080F3
S11315B0B18036FE03C0692D70E002C06FEF7FEF8B
S11315C0C5010E94050C4C01F32DF0683F2E8201E9
S11315D033FC1BC0822D90E088169906B0F4B60146
S11315E080E290E00E941B0C2A94F4CFF50137FCB2
S11315F0859137FE81915F01B60190E00E941B0C3A
S113160021102A9421E0821A91088114910471F71F
S1131610E8C0843611F0893641F5F80137FE07C079
S113162060817181828193810C5F1F4F08C060814A
S11316307181072E000C880B990B0E5F1F4FF32D41
S1131640FF763F2E97FF09C0909580957095619520
S11316507F4F8F4F9F4FF0683F2E2AE030E0A30169
S11316600E94570C882E861845C0853731F4232DE7
S11316702F7EB22E2AE030E025C0932D997FB92E1B
S11316808F36C1F018F4883579F0B5C0803719F079
S1131690883721F0B0C0E92FE061BE2EB4FE0DC042
S11316A0FB2DF460BF2E09C034FE0AC0292F26602A
S11316B0B22E06C028E030E005C020E130E002C0D0
S11316C020E132E0F801B7FE07C0608171818281B8
S11316D093810C5F1F4F06C06081718180E090E0B0
S11316E00E5F1F4FA3010E94570C882E8618FB2DF6
S11316F0FF773F2E36FE0DC0232D2E7FA22E891498
S113170058F434FE0BC032FC09C0832D8E7EA82E03
S113171005C0B82CA32C03C0B82C01C0B92CA4FE5E
S11317200FC0FE01E80DF11D8081803321F49A2D54
S1131730997EA92E09C0A2FE06C0B394B39404C036
S11317408A2D867809F0B394A3FC11C0A0FE06C0CC
S1131750B21488F4280C922C9B180EC0B21460F4B6
S1131760B60180E290E00E941B0CB394F7CFB21450
S113177018F42B1802C0982C212CA4FE10C0B6011A
S113178080E390E00E941B0CA2FE17C0A1FC03C0E2
S113179088E790E002C088E590E0B6010CC08A2D8D
S11317A0867859F0A1FE02C08BE201C080E2A7FC5A
S11317B08DE2B60190E00E941B0C891438F4B60146
S11317C080E390E00E941B0C9A94F7CF8A94F30173
S11317D0E80DF11D8081B60190E00E941B0C811080
S11317E0F5CF222009F442CEB60180E290E00E94B7
S11317F01B0C2A94F6CFF6018681978102C08FEFE5
S11318009FEF2B96E2E10C94D10CFC010590615002
S113181070400110D8F7809590958E0F9F1F089502
S1131820FC016150704001900110D8F780959095AB
S11318308E0F9F1F08950F931F93CF93DF93FB0188
S1131840238121FD03C08FEF9FEF2CC022FF16C020
S113185046815781248135814217530744F4A0817E
S1131860B1819D012F5F3F4F318320838C9326816B
S113187037812F5F3F4F3783268314C08B01EC01E0
S1131880FB010084F185E02D0995892BE1F6D8014F
S113189016968D919C911797019617969C938E930B
S11318A01697CE01DF91CF911F910F910895FA0100
S11318B0AA27283051F1203181F1E8946F936E7F8B
S11318C06E5F7F4F8F4F9F4FAF4FB1E03ED0B4E07C
S11318D03CD0670F781F891F9A1FA11D680F791FBD
S11318E08A1F911DA11D6A0F711D811D911DA11DCE
S11318F020D009F468943F912AE0269F11243019DE
S1131900305D3193DEF6CF010895462F4770405D78
S11319104193B3E00FD0C9F7F6CF462F4F70405D27
S11319204A3318F0495D31FD4052419302D0A9F782
S1131930EACFB4E0A6959795879577956795BA957C
S1131940C9F700976105710508959B01AC010A2E42
S113195006945795479537952795BA95C9F7620F19
S1131960731F841F951FA01D08952F923F924F92BD
S11319705F926F927F928F929F92AF92BF92CF921B
S1131980DF92EF92FF920F931F93CF93DF93CDB724
S1131990DEB7CA1BDB0B0FB6F894DEBF0FBECDBF9C
S11319A009942A88398848885F846E847D848C846D
S11319B09B84AA84B984C884DF80EE80FD800C8176
S11319C01B81AA81B981CE0FD11D0FB6F894DEBF59
S10F19D00FBECDBFED010895F894FFCFC9
S11319DCFFFF25640025642E253034752000506CDF
S11319EC6179205069616E6F2E2E2E2E2E2E005092
S11319FC6C61792056696F6C696E2E2E2E2E2E001A
S1131A0C426C7565746F6F74682E2E2E2E2E2E2ECE
S1131A1C00546F79205069616E6F204D7573696342
S1051A2C210093
S9030000FC
